:020000040800F2
:1000000010300020050100085524000809210008CF
:10001000392400080D030008FF410008000000001B
:10002000000000000000000000000000612B00083C
:100030005303000800000000452B0008632B000854
:100040001F0100081F0100081F0100081F01000810
:100050001F0100081F0100081F0100081F01000800
:100060001F0100081F0100081F0100081D030008F0
:100070001F0100081F0100081F0100081F010008E0
:100080001F0100081F0100081F0100081F010008D0
:100090008D4100081F0100081F0100081F01000812
:1000A0001F0100081F0100081F0100081F010008B0
:1000B0001F0100081F0100081F0100081F010008A0
:1000C0001F0100081F0100081F0100081F01000890
:1000D0001F0100081F0100081F0100081F01000880
:1000E0001F0100081F0100081F010008DFF810D0E1
:1000F00000F02CF80048004741420008AFF30080B0
:10010000103000200648804706480047FEE7FEE71B
:10011000FEE7FEE7FEE7FEE7FEE7FEE7FEE7FEE7B7
:10012000CD2B0008ED000008D2B201E000F8012B51
:10013000491EFBD270470022F6E710B513460A4667
:1001400004461946FFF7F0FF204610BD064C074D48
:1001500006E0E06840F0010394E807009847103497
:10016000AC42F6D3FFF7C6FFC8450008E8450008D3
:1001700070B58D1810F8014B14F0030201D110F87E
:10018000012B231106D110F8013B03E010F8016B9D
:1001900001F8016B521EF9D1ABB110F8012B04F03C
:1001A0000C048A1A0C2C03D0A2EB84129B1C08E0CE
:1001B00010F8014BA2EB0422F8E712F8014B01F80A
:1001C000014B5B1EF9D5A942D4D3002070BD70B598
:1001D000044600688168C943C90716D1816821F0C7
:1001E0000101816000F01EFF054609E000F01AFFE2
:1001F000401B022804D920688068C043C00706D08D
:1002000020688068C043C007F0D0002070BDA06A9D
:1002100040F01000A062E06A40F00100E0620120BE
:1002200070BD10B50146406A826A12F0500F05D0C9
:10023000006A026BBDE8104008461047816A41F42D
:100240000071816201688968C1F3424107290CD1BC
:10025000017B51B9816A21F480718162816AC9048C
:1002600003D4816A41F00101816200F067FA10BD98
:1002700010B5406A816A41F040018162C16A41F073
:100280000401C16200F05CFA10BD10B5406A00F0D4
:1002900056FA10BDF8B5002604460096006881683D
:1002A000C943C9072CD0816841F00101816015481C
:1002B00015490068B0FBF1F000E0401E00900028F6
:1002C000FBD100F0AFFE054615E000F0ABFE401B91
:1002D000022810D920688068C043C0070BD0A06AEC
:1002E00040F01000A062E06A40F00100E06284F893
:1002F00024600120F8BD20688068C043C007E4D1B5
:100300000020F8BDBC22002040420F00FEE7002084
:10031000704700207047002070470000014800F03F
:100320006DBC0000D423002030B590F8405001246B
:10033000AC40C56B6C60046863604368102B036855
:1003400003D099600068C26030BD9A600068C160E7
:1003500030BD70477047000008B504480021009088
:1003600008238022084602F094F808BDD01100202E
:1003700010B502F070F80F4900224868002801DA31
:100380004A6003E07F2801DD7F20486088680028FC
:1003900001DA8A6003E03F2801DD3F2088600879A8
:1003A000097A05A202F09EF9BDE81040642000F031
:1003B00037BD0000000000202B00000010B502F047
:1003C0004AF80021BDE8104001A2084602F08AB9AF
:1003D0006D6F64650000000010B502F03CF800216C
:1003E00007A2084602F07EF90848007808B108A282
:1003F00000E00AA20221BDE81040002002F072B91C
:10040000626C7565746F6F746800000000000020F6
:100410005374617475733A204F4E000053746174C5
:1004200075733A204F46460010B502F014F80021CB
:10043000BDE8104001A2084602F054B962757A7511
:100440006F00000010B502F006F800210FA2084668
:1004500002F048F900220321192002F0FDF80122E0
:100460000321322002F0F8F8022203214B2002F08F
:10047000F3F803221146642002F0EEF80521BDE8EE
:10048000104004A2192002F02DB9000076312E3060
:1004900000000000323032342F31322F303500006E
:1004A00008B504480021009008238022084601F086
:1004B000F0FF08BDD00D002008B5044800210090D1
:1004C00008238022084601F0E4FF08BDD001002087
:1004D00008B504480021009008238022084601F056
:1004E000D8FF08BDD005002008B5044800210090C1
:1004F00008238022084601F0CCFF08BDD019002057
:1005000008B504480021009008238022084601F025
:10051000C0FF08BDD01D002008B504480021009090
:1005200008238022084601F0B4FF08BDD00900204E
:1005300010B501F090FF0021BDE8104001A208466F
:1005400002F0D0B873657474696E670010B501F07D
:1005500082FF0021BDE8104001A2084602F0C2B8A7
:10056000504C415900000000F8B5002604460096A2
:1005700090F8240001280BD0012084F824002046A4
:10058000FFF725FE2046FFF785FE070002D050E06A
:100590000220F8BDA06A20F4885040F00200A0625A
:1005A000022001F079FA25490968B1FBF0F040001A
:1005B00000E0401E00900028FBD12068816841F0D7
:1005C0000801816000F02EFD054608E000F02AFDDC
:1005D000401B0A2803D920688068000715D42068CA
:1005E00080680007F2D42068816841F004018160CE
:1005F00000F018FD054612E000F014FD401B0A282B
:100600000DD920688068400709D5A06A20F0020053
:1006100040F01000A06284F824600120F8BD20683A
:1006200080684007E8D4A06A20F0020040F0010092
:10063000A06284F824603846F8BD0000BC22002087
:10064000F8B50023009390F824201C46012A12D00C
:10065000012280F824204A681F26072A0DD2056847
:100660006F6B521E02EB82029640B7430E689640B3
:1006700037436F6319E00220F8BD05680D2A0AD2DE
:100680002F6BD21F02EB82029640B7430E68964052
:1006900037432F6309E0EF6A0D3A02EB820296407E
:1006A000B7430E6896403743EF620A68072605682D
:1006B0000A2A0AD3EF680A3A02EB42029640B7438D
:1006C0008E6896403743EF6008E02F6902EB4202E4
:1006D0009640B7438E68964037432F610A68102AC8
:1006E00001D0112A20D1124D0268AA4217D1956873
:1006F0002D0219D4956845F4000595600968102904
:1007000012D10C490C4A0968B1FBF2F101EB8101ED
:10071000490000E0491E00910029FBD104E0816AF4
:1007200041F020018162012380F824401846F8BD81
:1007300000240140BC22002040420F007047704757
:1007400070470068C06C70472DE9F0414FF000061B
:10075000040035467DD0A06A002728B9E76284F8F6
:100760002470204600F07EF82046FFF730FDA16A95
:10077000C90600D420B1A06A40F01000A06268E071
:10078000A16A21F4885141F00201A1626268E16925
:10079000237B0A4346EA43010A43A1684FF480766B
:1007A000B14208D0012906D0002194F814C0BCF150
:1007B000010F02D00AE03146F7E7F3B1A36A43F034
:1007C0002003A362E36A43F00103E3622368D3F8E2
:1007D00004C02CF4694C4CEA010CC3F804C0216835
:1007E0008B68DFF874C003EA0C0313438B60A168C5
:1007F000B1420BD0012909D00CE0DFF860C0A36939
:100800000CEB43330B4343F40061DFE7218A0D0512
:10081000A5F580152168CB6A23F470032B43CB62C6
:10082000216889680E4B1940914208D1E762A16A9C
:1008300021F0020141F00101A162BDE8F081A06A4E
:1008400020F0020040F01000A062E06A40F00100D9
:10085000E0620120F1E70000FDF7E1FF00E0FFFFAB
:10086000FE0E1FFF70B586B000240646009401946A
:100870000294039400681A4988422ED11949886964
:1008800040F400708861886900F400700490886901
:1008900040F0040088618869694600F00400049013
:1008A00030200090032001900F4800F0CBFA104D4B
:1008B0000E48C5E900048020C5E9024040002861D7
:1008C000800068612020C5E90604284600F042FA4D
:1008D00008B1FFF73FFD35626E6206B070BD0000E3
:1008E00000240140001002400008014008000240BE
:1008F000D42300202DE9F8434FF000080D460446AC
:10090000CDF8008000F08EFB074620688168C9059D
:1009100008D5A06A40F02000A06284F8248001205D
:10092000BDE8F8834168C90503D4C06A10F4700FAC
:1009300029D0022001F0B0F83A490968B1FBF0F67D
:1009400020680169384A11424FEA62024FEAA21355
:100950001ED1C1684FEA621C11EA0C0F18D101695F
:10096000114224D1C068184221D1142022E0681C11
:1009700009D025B100F056FBC01BA84203D920685E
:100980000068800724D5206800688007EFD52CE038
:100990000169114202D1C168194206D00269234996
:1009A0000A4206D1C068084203D1542002E029203F
:1009B00000E0FC204643009815E0681C10D025B1EB
:1009C00000F030FBC01BA8420AD90098B04207D201
:1009D000A06A40F00400A06284F8248003209FE70E
:1009E0000098401C0090B042E7D321686FF01200DD
:1009F0000860A06A40F40070A06220688068C0F3BC
:100A0000424007280CD1207B50B9A06A20F48070A6
:100A1000A062A06AC00403D4A06A40F00100A062F2
:100A200000207DE7BC220020244992244992240022
:100A300070B5044690F8240001280DD0012084F8F8
:100A400024002046FFF726FC01004FF0000205D0ED
:100A500084F82420084670BD022070BDA06A40F2D0
:100A60000123984340F48070A0621F4D20681F4B03
:100A7000A84218D11E6816F4702F14D0A66A46F446
:100A80008016A6621E68760505D5A66A26F400566D
:100A900046F48056A662A66AF6040AD5E66A26F0EF
:100AA0000606E66206E0A66A26F48016A662466896
:100AB000E9E7E26284F824206FF002020260206815
:100AC0008268C2F34242072A05D1A84208D11A68B7
:100AD00012F4702F04D0826842F480128260B9E769
:100AE000826842F4A002F9E7002801400424014092
:100AF0002DE9F047894604463B4900683B4F0E1DEF
:100B00009046884201D0B84207D1306810F4702F67
:100B100003D001252846BDE8F08794F82400012879
:100B20000CD0012084F824002046FFF7B3FB050019
:100B30004FF0000104D084F82410EBE70220EAE72C
:100B4000A06A40F60162904340F48070A062206881
:100B5000B84218D1326812F4702F14D0A06A40F451
:100B60008010A0623068400505D5A06A20F40050CE
:100B700040F48050A062A06AC0040AD5E06A20F068
:100B80000600E06206E0A26A22F48012A2624068D7
:100B9000E9E7E16284F82410216A15488862216A35
:100BA0001448C862216A1448086321686FF0020083
:100BB00008602068816841F4807181602168434643
:100BC0004A464C31206A00F0F3F820688168C1F38E
:100BD00042410729816803D041F48011816099E77F
:100BE00041F4A001FAE70000002401400028014080
:100BF000230200088B020008710200082DE9F05F53
:100C0000C16B0B6801680A68046C4FF0040C0CFAA5
:100C100004FC4A4DDFF828A14A4E4B4FDFF82CB1B7
:100C2000DFF82CE11CEA030F2DD05FEA427C2AD5C5
:100C30000A68920603D40A6822F004020A60016876
:100C4000A94201D1042119E0514501D1402115E00B
:100C5000B14202D14FF4806110E0B94202D14FF4A9
:100C600080410BE0594502D14FF4802106E07145E7
:100C700002D14FF4800101E04FF080612F4A083A21
:100C80005160C16A3BE04FF0020808FA04F818EA24
:100C9000030F4FF000094FF0010C35D05FEA827866
:100CA00032D50A68920605D40A6822F00A020A6060
:100CB00080F821C00168A94201D1022119E0514503
:100CC00001D1202115E0B14202D14FF4007110E0B2
:100CD000B94202D14FF400510BE0594502D14FF413
:100CE000003106E0714502D14FF4001101E04FF0F0
:100CF0000071124A083A516080F82090816A0029F8
:100D00001AD0BDE8F05F08470825A5401D4213D062
:100D1000120711D50A6822F00E020A6090F84010FE
:100D2000C26B0CFA01F15160C0F838C080F821C0E4
:100D300080F82090016BE2E7BDE8F09F08000240D8
:100D40001C000240300002404400024058000240B3
:100D50006C00024030B528B302C8134A14230A4479
:100D6000B2FBF3F29200C263104A8263022242771E
:100D70000B6843F6F0729343D0E900242243D0E994
:100D800002452C4322430469224344692243846977
:100D900022431A430A60002141630122427701770E
:100DA000084630BD012030BDF8FFFDBF0000024005
:100DB00070B5044690F82000002501280CD00120D1
:100DC00084F8200094F821600020012E06D084F8D9
:100DD00020000225284670BD022070BD022684F83E
:100DE0002160A0632068066826F0010606602046A0
:100DF000FFF79AFAE06A00282068016802D041F003
:100E00000E0106E021F0040101602068016841F054
:100E10000A0101602068016841F001010160D9E721
:100E200070B5044600F0FEF80546601C02D0044888
:100E30000078044400F0F6F8401BA042FAD370BDDD
:100E4000C02200202DE9F84FDFF8A4910024A9F179
:100E5000040B23464FF00F0809F1040AABF1040E0E
:100E6000BEE00127A7403A40BA4272D1DFF884C100
:100E70004D68A5EB0C0665452BD00DDC032D34D059
:100E800005DC35B3012D19D0022D2FD11BE0112D1A
:100E900016D0122D2AD119E0B6F5881F19D006DC1C
:100EA000B6F5803F15D0B6F5801F1FD111E0B6F51D
:100EB000001F0ED0B6F5041F18D10AE0CB6815E06C
:100EC000CB681B1D12E0CB6808330FE0CB680C33F6
:100ED0000CE08B682BB1012B4FF0080303D0476166
:100EE00004E0042302E0076100E00023FF2A01D8A8
:100EF000064601E000F104064FEA840501D9A5F198
:100F00002005376808FA05FC27EA0C0703FA05F5FF
:100F100047EA050737604D68ED0060D5364DAE698C
:100F200046F00106AE61AD6924F0030605F0010547
:100F30000095324D7719BE68A5072D0F08FA05FCFC
:100F400026EA0C06DFF8B8C0604503D14FF0000C6C
:100F500017E044E0DFF8ACC0604502D14FF0010C6F
:100F60000FE0DFF8A4C0604502D14FF0020C08E0AA
:100F7000DFF898C0604502D14FF0030C01E04FF05C
:100F8000040C0CFA05FC4CEA060CC7F808C04D68C6
:100F9000D9F80060ED024D4601D5164300E09643B6
:100FA0002E604D68DAF80060AD02554601D5164353
:100FB00000E096432E604D68DBF80060AD035D46AF
:100FC00001D5164300E096432E604D68DEF80060C0
:100FD000ED03754601D5164300E096432E60641C70
:100FE0000A6832FA04F57FF43CAFBDE8F88F0000E0
:100FF00008040140000011100010024000000140F0
:1010000000080140000C01400010014000140140A4
:101010008068084000D0012070470AB10161704724
:101020000904FBE70148806870470000C0220020E7
:10103000024881680278114481607047C022002014
:10104000074810B5016841F010010160032000F06D
:1010500075F8002000F006F800F024F8002010BD1C
:101060000020024070B50D4D04464FF47A71287887
:10107000B1FBF0F00A490968B1FBF0F001F030F87B
:1010800048B9102C07D200222146501E00F036F835
:1010900000206C6070BD012070BD0000C0220020E7
:1010A000BC2200200C4808B5816941F00101816132
:1010B000816901F001010091C16941F08051C16174
:1010C000C069064900F080500090486820F0E06058
:1010D00040F00070486008BD001002400000014070
:1010E000002809DB00F01F02012191404009800027
:1010F00000F1E020C0F8001170470000F0B40E4B82
:101100001B68C3F30223C3F10704042C00D9042491
:101110001D1D072D01D2002300E0DB1E012606FA6B
:1011200004F56D1E0D409D409E40761E164045EA1A
:101130000601F0BC03F064B80CED00E0064A00F0D4
:10114000070110684FF6FF03184040EA01200349E9
:1011500008431060704700000CED00E00000FA0545
:1011600010B50C0607D501F0070101EB810100EB7A
:10117000C100103005E001EB810100EBC10000F57A
:10118000A87099B232B1012202730181190C418118
:10119000002010BD00220273C180F9E7704701EB07
:1011A000810200EBC202D0F8D402526A01F0DBBF28
:1011B00001EB810200EBC202D0F8D402D2F8642124
:1011C00002F034B870B504460B0601F0070000EBDE
:1011D000800104EBC1014FF001024FF0000502D580
:1011E0004A74103103E081F8515101F5A87108707B
:1011F00094F89002012808D084F89022206802F028
:101200005AFC84F89052002070BD022070BD70B569
:10121000044601F00F002279904201D9012070BDEF
:101220000B0601F0070000EB800104EBC1014FF059
:1012300001024FF0000502D54A74103103E081F835
:10124000515101F5A8718D70087094F89002012831
:1012500008D084F89022206802F0CBFC84F89052E9
:10126000002070BD022070BD2DE9F05F04685704B6
:101270000B788D69B4F850704FF000064BF68F79FB
:1012800048F2800A48F68F7B48F2C00E4FF480681F
:101290002AD54FF0020C0CEBC30C674408EB470750
:1012A000E45BC4F30904A54203D32D1B8D6101D077
:1012B0000BE08E61056835F8236006EA090686F4BE
:1012C000005646EA0A0625F82360520609D50A7830
:1012D000036833F8225005EA0B0545EA0E0523F8AA
:1012E000225084B30A8929E04FF0060C0CEBC30CA2
:1012F000674408EB4707E45BC4F30904A54203D342
:101300002D1B8D6101D00BE08E61056835F82360DF
:1013100006EA090686F4005646EA0A0625F823601E
:10132000520609D40B78026832F8235005EA0B05FF
:1013300045EA0E0522F823502CB14A894969006814
:10134000234602F02CFF2046BDE8F09F2DE9F05F18
:10135000054600680C465FEA426C8B6916460978C0
:10136000B0F850C048F68F774CF280094FF4004B2C
:101370004FF6FF7E4FF4806A4FF0000275D54FF0B4
:10138000020808EBC108E0440AEB480C30F80C00F6
:10139000C0F30900834211D91B1AA3610FD0730453
:1013A00007D52B6833F821603E4046EA090623F84A
:1013B000216094F82410012949D057E1A261607896
:1013C00010B1012813D01AE02868B0F85030184442
:1013D00000EB0110B0F80414C1F30901A0F80414E3
:1013E000B0F8041441F40041A0F8041407E02868A0
:1013F000B0F85030184400EB0110A0F804246178D4
:10140000286811B1012913D01AE0B0F8501008442F
:10141000217800EB0110B0F80C14C1F30901A0F819
:101420000C14B0F80C1441F40041A0F80C1407E0BF
:10143000B0F850100844217800EB0110A0F80C24FB
:1014400021782846FFF7ABFE700473D40EE1616982
:1014500001446161E1690144E1612369216A9942C2
:1014600004D31846091A216205E03EE084F82420DE
:1014700009B108462262617811B1012929D031E011
:101480002968B1F850201144227801EB0211B1F81B
:101490000424C2F30902A1F8042401F204413E2805
:1014A00007D94209C30600D1521E0B884BEA82229B
:1014B00007E048B14208C30700D0521C0B880EEA6F
:1014C000822213430B800DE00A8842F400420A8016
:1014D00008E02968B1F850201144227801EB02118C
:1014E000A1F8040483B22289BCE04FF0060808EB9F
:1014F000C108E0440AEB480C30F80C00C0F30900C6
:10150000834211D31B1AA3610FD0730407D42B6835
:1015100033F821603E4046EA090623F8216094F83A
:101520002410012953D0A1E0A261607818B10128EC
:1015300014D01BE041E02868B0F85030184400EBAC
:101540000110B0F80414C1F30901A0F80414B0F8B4
:10155000041441F40041A0F8041407E02868B0F82E
:101560005030184400EB0110A0F80424617828687A
:1015700011B1012913D01AE0B0F8501008442178B5
:1015800000EB0110B0F80C14C1F30901A0F80C1421
:10159000B0F80C1441F40041A0F80C1407E0B0F8C6
:1015A00050100844217800EB0110A0F80C24217899
:1015B0002846FFF7F4FD700458D42178286830F8E5
:1015C00021203A4042EA090220F821204EE06169D8
:1015D00001446161E1690144E1612369216A994241
:1015E00003D31846091A216204E009B108462262B1
:1015F00084F824206278296812B1012A28D02FE0CB
:10160000B1F850201144227801EB0211B1F80C24FA
:10161000C2F30902A1F80C2401F20C413E2807D9BB
:101620004209C30600D1521E0B884BEA822207E012
:1016300048B14208C30700D0521C0B880EEA822230
:1016400013430B800CE00A8842F400420A8007E052
:10165000B1F850201144227801EB0211A1F80C04DA
:10166000628983B26169286802F0B6FD2178286832
:1016700030F8212048F6BF731A4082F0300248F259
:1016800080031A4320F821200020BDE8F09F2DE9B7
:10169000F04104460E0601F0070000EB800104EB68
:1016A000C1014FF001074FF0000502D54F74103112
:1016B00003E081F8515101F5A871022B08700A610D
:1016C000CB7000D10D7194F89002012809D084F8F4
:1016D0009072206802F0AEF8284684F89052BDE877
:1016E000F0810220FBE710B501F0070404EB840150
:1016F00000EBC101C1E959230022C1F86C2181F836
:10170000512181F85041006801F5A87102F0C4FA36
:10171000002010BD70B504460D4601F00700217988
:10172000884201D9012070BD29064FF000064FF014
:10173000010206D500EB800104EBC1014A741031AF
:1017400007E005EB850104EBC10181F8516101F56A
:10175000A8718A70087094F89002012807D084F864
:101760009022206802F07FFA680702D006E002208B
:1017700070BD04F52671206802F039FA84F8906291
:10178000002070BD10B501F0070404EB840100EBEC
:10179000C101C1E90923012281F834200B63002330
:1017A000CB624A7401F8104F006802F075FA00200D
:1017B00010BD1FB50446006802F0EEFC010403D51D
:1017C000204600F0EBFF1FBD41050DD5206830F825
:1017D000441F21F480610180204600F0FDF80021C3
:1017E000204600F014F91FBD410405D5206830F8EB
:1017F000441F21F4804173E0810405D5206830F84E
:10180000441F21F400516BE0C10414D5206830F866
:10181000401F21F004010180206830F8401F21F0B2
:1018200008010180204600F0EAF8206830F8441FE3
:1018300021F4805154E001053FD5216800206A461B
:1018400031F8203022F81030401CC0B20828F7D3FD
:1018500031F8400F40F001000880206830F8401F48
:1018600021F0010101802068B0F844104905FBD542
:1018700030F8441F21F4806101800020236832F891
:10188000101023F82010401CC0B20828F6D320689E
:1018900030F8401F41F008010180206830F8441FF3
:1018A00021F400610180206830F8401F41F00401FC
:1018B0000180204600F0DEF81FBD810509D52068B3
:1018C00030F8441F21F400710180204600F09BF89D
:1018D0001FBDC005FCD5206830F8441F21F480717D
:1018E00001801FBD2DE9F041040004D094F891025D
:1018F000002518B107E00120BDE8F08184F890527E
:10190000204600F04BF8032084F8910265712068AE
:1019100002F066F994E80F0002F0CBF8022690BBC3
:101920000021206802F050FC68BB002101270BE079
:1019300001EB810004EBC00047740174C5740562BB
:101940004562491CC9B2856220798842F0D80021DD
:1019500011E001EB810004EBC00080F8515180F8E8
:10196000501180F85351C0F86051C0F86451491CBF
:10197000C9B2C0F8685120798842EAD894E80F00CB
:1019800002F025F910B184F89162B4E7657384F828
:101990009172206802F019F90020ADE708B50068DF
:1019A0000B49884212D10B48C16941F40001C16161
:1019B000C069002200F40000009011461420FFF7D7
:1019C0009DFBBDE808401420FFF78ABB08BD00005E
:1019D000005C00400010024070B50446807901258B
:1019E000022801D0FEF7B6FC2946D4F8D40201F053
:1019F000F9FCD4F8D402BDE8704001F0B5BCD0F8D1
:101A0000D40201F0D9BCD0F8D40201F0DFBC10B58B
:101A1000044690F8900201280AD0012084F8900230
:101A20006173206802F0D2FB002084F8900210BDA0
:101A3000022010BDD0F8D42200F52671104601F026
:101A4000DDBC10B5044690F89002012810D00120AA
:101A500084F89002206802F08FFB01212046FFF7F6
:101A60009DFB206802F0AFF8002084F8900210BDC2
:101A7000022010BD10B50446D0F8D40201F0FDFCE0
:101A8000A07A002804D00348016841F006010160F3
:101A900010BD000010ED00E010B501460020234C01
:101AA000012922D0022939D010291DD1616822686C
:101AB000D20119D51E48C1F38342C903805C0AD5FF
:101AC00061681B4AC1F34041921E515C194AB2FB46
:101AD000F1F1484301E0184948436168490203D4E1
:101AE00040000321B0FBF1F010BD226AC2F30121D6
:101AF000012903D1920701D5C80310BD022905D1E0
:101B0000626A920702D549F6404010BD0329FCD114
:101B100021688903F9D54FF2244010BD00F01EF969
:101B20006168C1F38131491C4900DBE700100240C4
:101B3000B845000800127A0000093D002DE9F8437D
:101B400004460078344FC00752D0F8690025C00021
:101B500008D4F86940F08050F861F869012500F078
:101B6000805000902D480168C90511D40168804655
:101B700041F480710160FFF755FA064604E0FFF773
:101B800051FA801B642822D8D8F80000C005F6D589
:101B9000386A10F4407020D0A18801F4407181426D
:101BA0001BD0386A1E49012220F440700A600022CE
:101BB0000A603862C00710D0FFF734FA064641F2D7
:101BC000883807E0FFF72EFA811B414502D9032030
:101BD000BDE8F883386A8007F4D5386A616820F474
:101BE0004070084338621DB1F86920F08050F861F8
:101BF0002078800705D57868A16820F44040084324
:101C000078602078C00605D57868E16820F4800007
:101C1000084378600020DBE70010024000700040BD
:101C2000400442422DE9F0470D46040067D0DFF83A
:101C30001881D8F8000000F00700A8420CD2D8F8AC
:101C4000001021F007012943C8F80010D8F800005F
:101C500000F00700A84252D120683C4E810712D5FF
:101C6000400703D5706840F4E0607060207800079A
:101C700003D5706840F4605070607068A16820F00F
:101C8000F000084370602078C00727D06068012802
:101C900010D03168022810D0890700292FDA716826
:101CA00021F0030101437160FFF7BCF9074641F2DF
:101CB00088390CE031688903EFE78901EDE7FFF728
:101CC000B1F9C11B494502D90320BDE8F08770680E
:101CD000616800F00C00B0EB810FF0D1D8F8001073
:101CE000404601F00701A9420BD9016821F0070124
:101CF00029430160006800F00700A84201D00120DC
:101D0000E3E72078400705D57068E16820F4E060DB
:101D1000084370602078000706D57068216920F4B8
:101D2000605040EAC100706000F028F87168084A0D
:101D3000C1F30311515CC8400649086006480068B9
:101D4000FFF790F90020C0E7002002400010024099
:101D50008C450008BC220020C4220020044805490C
:101D600000684968044AC1F3C221515CC840704709
:101D7000BC220020001002409C4500080E4B596810
:101D80000E4801F00C02042A11D0082A0FD10C4889
:101D9000C1F38342C903805C0AD55968084AC1F37C
:101DA0004041921E515C054A5043B0FBF1F0704730
:101DB00004494843704700000010024000127A00B6
:101DC000A645000800093D002DE9F84F04006FD03A
:101DD0002078BE4DC00747D06868C0F38100012855
:101DE00007D06868C0F38100022809D16868C00381
:101DF00006D52868800337D560680028E7D033E02F
:101E00006068B0F5803F0BD010B1B0F5A02F11D0B5
:101E1000286820F480302860286820F4802002E0C0
:101E2000286840F480302860606888B1FFF7FAF8CD
:101E3000064609E0286840F480202860F0E7FFF7B4
:101E4000F1F8801B642873D828688003F7D50BE06D
:101E5000FFF7E8F8064604E0FFF7E4F8801B642883
:101E6000F1D828688003F7D42078DFF864828007EF
:101E70004FF0010A4FF0000939D5686810F00C0FD7
:101E800007D06868C0F38100022809D16868C003E0
:101E900006D42868800714D52069012808D110E0ED
:101EA0002069B0B1C8F800A0FFF7BCF8064605E00D
:101EB00007E1FFF7B7F8801B0228C4D8286880071D
:101EC000F7D52868616920F0F80040EAC100286071
:101ED0000DE0C8F80090FFF7A5F8064604E0FFF70C
:101EE000A1F8801B022823D828688007F7D420781F
:101EF00000072CD57748A169D9B1C0F800A0FFF739
:101F000091F8064604E0FFF78DF8801B02280FD8F1
:101F1000686A8007F7D570484FF4FA510068B0FB43
:101F2000F1F0009000BF0098411E0091FAD20EE03F
:101F30007CE0C0F80090FFF775F8064604E0FFF774
:101F400071F8801B022871D8686A8007F7D420785E
:101F500040075BD5E8690027C00008D4E86940F075
:101F60008050E861E869012700F0805000905B48EC
:101F70000168C90511D40168834641F4807101608C
:101F8000FFF750F8064604E0FFF74CF8801B642882
:101F90004CD8DBF80000C005F6D5E06801280AD06F
:101FA00008B1052813D0286A20F001002862286AA9
:101FB00020F0040002E0286A40F001002862E06896
:101FC00041F2883B88B1FFF72DF8064609E0286A00
:101FD00040F004002862EEE7FFF724F8811B594522
:101FE0005BD8286A8007F7D50BE0FFF71BF8064699
:101FF00004E0FFF717F8811B59454ED8286A80077F
:10200000F7D41FB1E86920F08050E861E069A8B317
:102010006968C1F38101022946D00228484606D0EA
:10202000C8F86000FEF7FEFF044639E035E0474699
:10203000C8F86000FEF7F6FF064604E0FEF7F2FF80
:10204000801B022829D828688001F7D4206AB0F5BF
:10205000803F05D16868A16820F4003008436860BB
:10206000D4E908010843696821F4741108436860E1
:10207000C7F860A0FEF7D6FF044605E023E0FEF7B0
:10208000D1FF001B022808D828688001F7D51AE084
:10209000FEF7C8FF001B022802D90320BDE8F88F15
:1020A00028688001F4D40EE00128F7D06868226A1D
:1020B00000F48031914204D1616A00F470108842CA
:1020C00001D00120EAE70020E8E70000001002400C
:1020D0000000424280044242BC22002000700040C6
:1020E00010B5401EB0F1807F01D3012010BD4FF02C
:1020F000E02460610F21601702F082F80020A061E7
:1021000007202061002010BDFEE7F0B500230A245F
:10211000302537261F4610E0B4EB107F02D905EBBF
:10212000107C01E006EB107C01F813C001EB430CBE
:1021300000015B1C8CF80170DBB29342ECD3F0BD64
:1021400000B585B000200190029003900848816995
:1021500041F0080181618069694600F0080004903F
:1021600040F61B4000900348FEF76CFE05B000BD32
:1021700000100240000C01402DE9F041102000F059
:10218000E3FC424C2070082000F0DEFC607002206E
:1021900000F0DAFCA070012000F0D6FCE0704FF4F3
:1021A000006000F0D1FC20714FF4806000F0CCFCA6
:1021B0006071A71D20783978354E364D88420ED093
:1021C0003220FEF72DFE2078012808D1287800EB78
:1021D000400006EB80004078287000F01BFD60781E
:1021E000797888420CD03220FEF71AFE60780128F8
:1021F00006D1287800EB400006EB8000807828703C
:10220000A078B97888420CD03220FEF709FEA07879
:10221000012806D1287800EB400006EB8000C0784A
:102220002870E078F97888420CD03220FEF7F8FD6B
:10223000E078012806D1287800EB400006EB80000A
:102240000079287020793979884207D03220FEF74A
:10225000E7FD2079012801D1002028706079797983
:1022600088420CD03220FEF7DBFD6079012806D1D0
:10227000287800EB400006EB80004078287020684A
:10228000C4F80600A0886081BDE8F081C401002088
:10229000100100200C0100203EB5002117480091DC
:1022A0000191154A02910260921582600124047323
:1022B000017502254FF460220561C2614160FEF79D
:1022C00043FA08B1FEF746F80420CDE900040524DE
:1022D00069460A480294FEF7B3F908B1FEF73AF8E6
:1022E00069460648CDE90045FEF7AAF9002801D065
:1022F000FEF730F83EBD000000240140A42300207A
:10230000094808B5416941F0010141614069002275
:1023100000F00100009011460B20FEF7EFFEBDE833
:1023200008400B20FEF7DCBE0010024070B586B0FE
:10233000002421480094019402940394816941F09F
:1023400010018161816901F010010491816941F0FE
:1023500020018161816901F020010491816941F0CE
:1023600004018161816901F004010491816941F0F6
:10237000080181618069114E00F008004FF400559A
:102380000490002229463046FEF747FE01200095C2
:10239000CDE901040220039069463046FEF752FD64
:1023A00040F61B40CDE90004694605480294FEF75B
:1023B00049FD06B070BD0000001002400010014051
:1023C000000C014010B500221749184800F0A4FE87
:1023D0001749164801F077F81649144800F0ACFC8C
:1023E000124801F0C5F800220F49104800F094FE91
:1023F00008B1FDF7AFFF0E490C4801F064F808B1D1
:10240000FDF7A8FF0B49094800F096FC08B1FDF75D
:10241000A1FF064801F0ACF8002803D0BDE8104049
:10242000FDF798BF10BD0000E02100201824002017
:10243000D0220020AC220020FEE7000008B50448AE
:102440000021009008238022084600F022F808BDF1
:10245000D0150020704770B5002505F1B000C0B25E
:10246000002100F059F90021084600F055F900213B
:10247000102000F051F900240121002000F04CF957
:10248000641CE4B2802CF7D36D1CEDB2082DE4D3AC
:1024900070BD2DE9F0471F4690460E468246002546
:1024A000DDF8209011E03146504600F0BFF8544668
:1024B00007E019F8050001216D1C00F02DF9641CDE
:1024C000E4B24445F5D3761CF6B2BE42EBD3BDE888
:1024D000F087000030B585B0002002905148816936
:1024E00041F00801816180694FF4E64400F0080082
:1024F00004900120CDE9004002204B4D0390694635
:102500002846FEF79FFC012221462846FEF785FD5E
:10251000AC14002221462846FEF77FFD6420FEF71A
:102520007FFC012221462846FEF777FD0021AE20E0
:1025300000F0F2F80021084600F0EEF8002110202B
:1025400000F0EAF80021402000F0E6F800218120A8
:1025500000F0E2F80021CF2000F0DEF80021A120F9
:1025600000F0DAF80021C82000F0D6F80021A620FB
:1025700000F0D2F80021A82000F0CEF800213F2082
:1025800000F0CAF80021D32000F0C6F80021084668
:1025900000F0C2F80021D52000F0BEF80021F020A4
:1025A00000F0BAF80021D92000F0B6F80021F1209F
:1025B00000F0B2F80021DA2000F0AEF8002112207D
:1025C00000F0AAF80021DB2000F0A6F8002140204E
:1025D00000F0A2F80021202000F09EF80021022047
:1025E00000F09AF800218D2000F096F800211420C8
:1025F00000F092F80021A42000F08EF80021A6201F
:1026000000F08AF80021AF2000F086F80021AF200A
:1026100000F082F8FFF71FFF0021084600F006F8DF
:1026200005B030BD00100240000C014010B504465A
:10263000B031C8B2002100F06FF8102040EA141049
:10264000002100F069F804F00F00BDE8104040F0F0
:102650000100002100F060B82DE9F04115460E465A
:102660000746FFF7E3FF0F48002400EB8515012123
:10267000285D00F051F8641CE4B2102CF7D3761CEE
:10268000F1B23846FFF7D2FF00242819012190F853
:10269000200000F041F8641CE4B2102CF5D3BDE832
:1026A000F08100000C00002070B5203A0024D5B263
:1026B0007F2802D90020891CC9B2491CC9B2FFF782
:1026C000B5FF074905EB450001EB40050121285DF9
:1026D00000F022F8641CE4B2062CF7D370BD0000B1
:1026E000644300082DE9F04117460E4604460025D4
:1026F0000CE031462046FFF7D7FFA41DE4B2782C4A
:1027000002D90024B61CF6B26D1CEDB27A5D002A27
:10271000EFD1BDE8F08100002DE9F0471E4E0546DF
:102720004FF4005A09B1012200E000225146304620
:10273000FEF773FC4FF48048002241463046FEF716
:102740006CFC00244FF400794FF480770022394666
:102750003046FEF762FC280601D5012200E0002287
:1027600049463046FEF759FC012239463046FEF70D
:1027700054FC6806641C050EE4B2082CE6D3012262
:1027800041463046FEF749FC51463046BDE8F04729
:102790000122FEF742BC0000000C01402DE9F05F71
:1027A00004464FF0060A4FF480694FF0000BC0E179
:1027B000B0F8441011F00F063AD030F826805FEAE6
:1027C00008417DD530F8261040F68F72114041F057
:1027D000800120F8261006EB860004EBC00595F872
:1027E0005C0105F5A87500286BD0E878022869D04F
:1027F0002978206830F8212048F68F731A4048F273
:10280000C0031A4320F821202978206830F82120BD
:10281000B0F8503052047DD5022202EBC1015A18A3
:1028200009EB4201415A8F05BF0D74D02A89D9E0C6
:10283000C9062CD4018848F60F72114041F40041BA
:102840000180206804F11005B0F85020237C02219B
:1028500001EBC3010A4409EB4201405AC0F30900ED
:10286000E062616A0844606200212046FEF797FC3E
:10287000607B00289BD0A869002898D1607B2168E4
:1028800040F08000A1F84C0084F80DB051E10188BF
:1028900004F5A8750A0521D5B0F850202B780AEB6D
:1028A000C3010A4409EB4201405A04F52671C0F302
:1028B0000903EB61EA88206801F071FC206802E0FE
:1028C000A8E06FE07DE0018840F68F72114041F092
:1028D000800101802046FFF7ADF82AE10904D5D533
:1028E000018840F68F72114041F08001018020681C
:1028F000B0F850202B780AEBC3010A4409EB4201DF
:10290000405A83059B0DEB6110D0696971B1EA886B
:10291000206801E05CE05AE001F041FCE969686987
:102920000844686100212046FEF742FC20680188C7
:102930000A05ABD4C1F301310329A7D0B0F8501078
:102940000844B0F80C14C1F30901A0F80C1429696B
:1029500000F20C403E2909D94A09C90600D1521E8D
:1029600001884FF4004343EA822209E0B1B14A08EA
:10297000C90700D0521C01884FF6FF7303EA822278
:1029800011430180206801884BF68F72114081F459
:10299000405148F2800211430180CAE0018841F4AD
:1029A0000041EEE72068B0F850202B780AEBC30115
:1029B0000A4409EB4201415A8F05BF0D16D0EA883F
:1029C00010E0424629462046FEF74EFC07460DE041
:1029D0000AEBC1015A1809EB4201415A8F05BF0D9C
:1029E00004D06A893B46696901F0D9FBE86938443B
:1029F000E861686938446861A86910B12869B8421B
:102A000004D929782046FEF7D3FB03E02946206845
:102A100001F042F95FEA086030D506EB860004EB6E
:102A2000C001206830F8262048F60F731A4042F49F
:102A3000004220F82620C87C103101281FD05FEA10
:102A4000C85072D42068B0F850300D78022202EBE2
:102A5000C502134409EB4302805A8A69C0F3090096
:102A600082425AD9121A8A6159D04A6902444A618B
:102A7000CA691044C861206801F00EF959E0C1F834
:102A800018B0087B5B4620B35FEA486022D54878DF
:102A900010B1012814D03EE02068B0F85020104456
:102AA0000A7800EB0210B0F80424C2F30902A0F87F
:102AB0000424B0F8042442F40042A0F804242AE0DC
:102AC0002068B0F8502010440A7800EB0210A0F8FB
:102AD000043420E04A78206812B1012A13D01AE0A9
:102AE000B0F8502010440A7800EB0210B0F80C2423
:102AF000C2F30902A0F80C24B0F80C2442F40042FE
:102B0000A0F80C2407E0B0F8502010440A7800EB3D
:102B10000210A0F80C34097802E0C1F818B0E9B24C
:102B20002046FEF73CFB04E0FFE742462046FEF766
:102B30000DFC2068B0F8441009043FF539AE0020C0
:102B4000BDE8F09F7047000010B501460348FEF74E
:102B50005FFA08B1002010BD012010BD000C01403B
:102B60007047FEF765BA30B593B028216846FDF787
:102B7000E2FA14210AA8FDF7DEFA002401210F94DD
:102B800010940804CDE900101194129402940225C7
:102B90000491CDE90750000109906846FFF714F948
:102BA0000F20CDE90A056802CDE90C4001210AA8F1
:102BB0000E94FFF737F812200F906803119000026F
:102BC00012900FA8FEF7BAFF13B030BD0D48016890
:102BD00041F00101016041680B4A11404160016808
:102BE0000A4A11400160016821F4802101604168B6
:102BF00021F4FE0141604FF41F0181600449C003CC
:102C000008607047001002400000FFF8FFFFF6FE6A
:102C100008ED00E00349087810B100200870704703
:102C20000120FBE700000020D0F8B802002180F866
:102C300050100846704770B50546D0F8B842D5F830
:102C4000BC226178D2682078904740232246012137
:102C5000284600F080FB002070BD70B5044681213D
:102C600000F078FA002501212046E56200F072FAB2
:102C7000C4F86C51D4F8B80248B1D4F8BC0204F5D9
:102C80002E7480688047206800F0CFFD256000200A
:102C900070BD10B5D0F8B842E16C012908D1D0F868
:102CA000BC0223786178C268184690470020E0642F
:102CB000002010BD0A2101800048704798230020A1
:102CC0002921018000487047082300202921018024
:102CD00000487047342300202921018000487047B4
:102CE0006023002070B504460026022303228121C0
:102CF00000F025FB01250223032229462046E56238
:102D000000F01DFB5420C4F86C5100F08FFDC4F896
:102D1000B80278B10546002085F85000D4F8BC020E
:102D20004068804740232A460121204600F013FBDB
:102D3000304670BD0126FBE702460220002902D082
:102D40000020C2F8BC127047F8B50022D0F8B832A3
:102D5000ADF800200D781646144615F0600522D017
:102D6000202D56D14A78921E0A2A52D2DFE802F06C
:102D700010085151515151140C05887818644BE0DA
:102D8000012203F1400135E04888000A586443E01D
:102D9000012203F144012DE00122DA64CA881946B8
:102DA00000F064F838E04D7835B1062D0BD00A2DCF
:102DB00023D00B2D2DD128E090F89C22032A28D176
:102DC0000222694616E04B882225B5EB132F07D166
:102DD000CA887A2A00D97A22D0F8BC120E6808E094
:102DE0002125B5EB132F04D1CA880E4E092A00D92C
:102DF0000922314600F054F80EE090F89C22032A94
:102E000007D1012203F14801F4E790F89C22032A3C
:102E100004D000F020F802242046F8BD8878986499
:102E2000FAE700008C23002010B5D0F8B4225268D5
:102E30009047002010BD134610B50A46002100F04F
:102E40008AFA002010BD134610B50A46002100F092
:102E50001DFB002010BD10B50446802100F0FBFAD8
:102E60002046BDE81040002100F0F5BA10B503235C
:102E7000C0F85C21C0F89432C0F8602113460A46BD
:102E8000002100F068FA002010BD10B505210023D4
:102E9000C0F894121A46194600F05DFA002010BDE1
:102EA00010B50223C261C0F89432026213460A468A
:102EB000002100F0EBFA002010BD10B50421002322
:102EC000C0F894121A46194600F0E0FA002010BD2E
:102ED00010B50A46024903A000F0EEF8004810BD04
:102EE0000C2A0020437573746F6D204849442043B9
:102EF0006F6E666967000000122008800048704706
:102F00000022002010B50A46024903A000F0D4F8C0
:102F1000004810BD0C2A0020437573746F6D204863
:102F2000494420496E746572666163650000000063
:102F30000420088000487047FC21002010B50A4694
:102F4000024903A000F0B8F8004810BD0C2A002088
:102F500053544D6963726F656C656374726F6E690B
:102F60006373000010B50A46024903A000F0A4F8FC
:102F7000004810BD0C2A002053544D3332204375B5
:102F800073746F6D2048756D616E20696E74657223
:102F9000666163650000000010B51A2008800A48C9
:102FA0000168001D0468001D0068081809D0082287
:102FB0000649FFF7AAF80549042210312046FFF719
:102FC000A4F80248801E10BDE8F7FF1F162200205B
:102FD000F8B504460020ADF8000048880D46010A07
:102FE000082948D2DFE801F04704091747473D4563
:102FF000D4F8B012207C0A6819E0207C0226002850
:10300000D4F8B40205D0C16A6846884701464670C4
:103010003EE0816AF8E7C0B206282CD2DFE800F073
:10302000030B1115191DD4F8B002426806E0694679
:10303000904701462CE0D4F8B0028268DAB1207CD7
:10304000F5E7D4F8B002C268F8E7D4F8B002026934
:10305000F4E7D4F8B0024269F0E7D4F8B00282692C
:10306000ECE7207C38B9D4F8B402416B6846884755
:10307000DFE7207C20B129462046FFF7ECFEF8BDB3
:10308000D4F8B402016B68468847014607204870AF
:10309000BDF8000048B1EA8852B1824200D9024628
:1030A000ADF800202046FFF7FBFEE8880028E6D1B7
:1030B0002046FFF702FFF8BD70B5002300281ED0A0
:1030C0000446002502E06D1CEDB2641C2678002E3B
:1030D000F9D1022404EB450414801278CA545B1C15
:1030E0000322CA5400245B1C06E0CA545B1CDAB2FB
:1030F0008C54521CD3B2401C0278002AF5D170BD0A
:1031000001004FF0000004D0012901D0022901D0B4
:10311000022070470120704710B580B1D0F8B4325A
:1031200013B10023C0F8B43209B1C0F8B0120121C4
:1031300080F89C12027000F0BBF8002010BD022045
:1031400010BD10B5D0F8C002FEF761F8BDE8104020
:10315000FFF7D6BF10B5D0F8C002FEF733F8BDE8D0
:103160001040FFF7CDBF2DE9F0411746044651B19D
:10317000D4F8B40242691AB194F89C02032851D0E1
:103180000220BDE8F081D4F89432002504F1140047
:10319000022B03D0042B3AD0C3B33CE0D0E9036345
:1031A0009E4207D9F11AC1608AB239462046FFF71C
:1031B0004AFE12E08068B0FBF3F103FB110199B9FC
:1031C000984211D3D4F8981288420DD200221146A9
:1031D0002046FFF738FEC4F8985200231A461946D5
:1031E000204600F0B8F816E0D4F8B402C16829B15E
:1031F00094F89C02032801D120468847802120466C
:1032000000F029F92046FFF740FE04E0FFE78021A7
:10321000204600F020F994F8A002012804D184F897
:10322000A05201E0204690470020AAE770B515465D
:10323000044649B1D4F8B40282691AB194F89C02E8
:10324000032830D0022070BDD4F8941204F5AA707F
:10325000032902D005291ED027E0D0E903318B4293
:103260000BD95B1AC3600846834200D303469AB267
:1032700029462046FFF7DFFD17E0D4F8B4020169C4
:1032800029B194F89C02032801D1204688472046A2
:10329000FFF713FE09E000200146C4F8940220461F
:1032A00000F0D9F801E020469047002070BD0000F2
:1032B00010B5044618481949C0F8D442C4F8C002F1
:1032C0000160082101710221817100218172C172A6
:1032D0000173FEF707FB08B1FDF73CF80022D4F8B4
:1032E000C0021823114604F53074FDF739FF582346
:1032F000002280212068FDF733FF982300228121DE
:103300002068FDF72DFFD823002201212068FDF75A
:1033100027FF002010BD000034270020005C004083
:103320000A0601F07F01D0F8C00201EB810100EB39
:10333000C10001D5807C704790F85201704710B5EC
:103340001C461346D0F8C0022246FEF7A0F9BDE89D
:103350001040FFF7D5BE10B5D0F8C002FEF7C3F994
:10336000BDE81040FFF7CCBE70B5002204464023F4
:103370001146FFF7E4FF40260125C4F86461334697
:10338000002280212046C4F85851FFF7D8FF66621A
:10339000A56184F89C520020C4F894026060C4F8CF
:1033A000A402D4F8B80228B1D4F8B40200214268CB
:1033B00020469047002070BD90F89C12042903D14C
:1033C00090F89D1280F89C120020704710B590F87C
:1033D0009C12032904D1D0F8B412C96901B18847FD
:1033E000002010BD01740020704710B5D0F8C00255
:1033F000FEF70DFBBDE81040FFF782BE70B5044636
:1034000000F52A70054600F04AF80120C4F894023D
:10341000B4F8AE02C4F8980294F8A82212F01F0083
:103420000AD001280DD0022810D002F080012046D9
:1034300000F011F8002070BD2946204600F09DF8EC
:10344000F8E72946204600F0C9F9F3E72946204667
:1034500000F01CF9EEE710B5D0F8C002FEF75AF9FB
:10346000BDE81040FFF74CBE10B5D0F8C002FEF723
:10347000E8FABDE81040FFF743BE90F89C1280F8D0
:103480009D12042180F89C120020704710B5D0F8DE
:10349000C002FEF777F9BDE81040FFF731BE0A78A9
:1034A00002704A7842708A78CB7802EB032242801D
:1034B0000A794B7902EB032282808A79C97902EB7F
:1034C0000121C18070470246002011B1C2F8B41238
:1034D00070470220704710B5D0F8B42202241AB108
:1034E0001268904700B90024204610BD70B50E4602
:1034F0001E4D897804462970012931D894F89C0220
:1035000002280BD003280FD031462046FFF7A3FC3A
:1035100029782046BDE87040FFF786BCD9B103206A
:10352000616084F89C0209E071B16068884212D041
:10353000C1B22046FFF778FC297861602046FFF78A
:10354000CAFF02280CD006E0022084F89C02204624
:103550006160FFF769FC2046BDE87040FFF7ADBC35
:1035600031462046BDE87040FFF775BCCC220020F4
:1035700010B5FFF779FF002010BD2DE9F0410A7862
:10358000002712F0600208D0202A01D0402A70D112
:10359000D0F8B422926890476DE04A780023012663
:1035A0000A2A66D2DFE802F0405D655765080565C6
:1035B0002C29FFF70DFD5EE004468888D8B9C8883D
:1035C000C8B94888802816D200F07F0594F89C027C
:1035D000032810D084F89E5229462046FFF705FFA5
:1035E0002046FFF76AFC1DB1022084F89C0242E0ED
:1035F00084F89C623FE020463BE0FFF777FF3AE02B
:10360000CA88012A35D190F89C22012A04D0022AC6
:1036100002D0032A2DD104E0012200F108018360C9
:1036200016E00122011D13E090F89C22012A03D02C
:10363000022A01D0032A1CD1CA88022A19D1C660E5
:10364000D0F8A41209B10321C160022200F10C01DB
:10365000FFF726FC0FE0498801290CD1C0F8A462CD
:1036600011E090F89C22012A08D0022A06D0032AF1
:1036700004D0FFF7F0FB3846BDE8F0814988012906
:10368000F9D1C0F8A432FFF718FCF4E72DE9F041B6
:103690000A46044613780027097913F060000AD01F
:1036A000202801D0402850D1D4F8B40211468368B4
:1036B000204698478FE0C3F34110012806D0507888
:1036C000D0B301282AD003283FD107E0D4F8B402B0
:1036D000114683682046BDE8F041184794F89C02E3
:1036E000022802D0032872D10AE071B380296ED07B
:1036F0002046FFF7B0FE80212046FFF7ACFE6AE0CF
:10370000508838B931B1802904D0D08810B920460A
:10371000FFF7A1FE2046FFF7D0FB5CE094F89C0287
:103720000228E2D0032852D1508898BB4806F1D035
:103730002046FFF706FDEDE7FFE794F89C02002620
:10374000022803D0032842D112E040E009B18029C9
:103750003DD1080601F07F0000EB800004EB800102
:1037600001D5143101E001F5AA7102220E602AE0B0
:10377000080601F00F0000EB800004EB80000AD582
:10378000806920B301F07F0000EB800004EB80052E
:1037900014350BE01FE0D0F85801C0B101F07F00F4
:1037A00000EB800004EB800505F5AA7541B1802986
:1037B00006D02046FFF7B4FD10B10120286000E0DC
:1037C0002E60022229462046FFF76AFB03E01146DD
:1037D0002046FFF740FB3846BDE8F08170B505464E
:1037E00008780C4610F0600203D0202A01D0402A4D
:1037F00016D195F89C22012A03D0022A01D0032A6F
:103800000ED1207901280BD8D5F8B4028268284659
:103810009047E188014306D12846FFF74EFB02E0BE
:103820002846FFF718FB002070BD7047004870471E
:10383000DC2600202DE9F0470D78002730F8252000
:1038400048F68F131A40CB78002B72D0012B76D01C
:10385000022B02D0032B6FD0012748F280042243B1
:1038600020F825200A7830F8223048F68F752B4052
:103870001343234320F822300B7B48F2C00948F65B
:10388000BF724CF2800A4BF68F7CE3B3CB78022BED
:103890000B7830F8236078D048F68F6806EA08067F
:1038A000264320F82360B0F850300E78034403EB31
:1038B00006130E8926F00106A3F80064B0F8503014
:1038C0000E78034403EB06134E8926F00106A3F895
:1038D00008644B78002B0B7830F823604FEA46469B
:1038E0007ED0002E06DA30F823602E4046EA0A0623
:1038F00020F823600B7830F82360760608D530F87E
:1039000023602E4000E01DE046EA090620F823600F
:10391000CB78012B0B7830F8235005EA02057CD0D8
:1039200085F02002224320F82320B7E001E006E0E2
:1039300002E042F4007290E742F4C0628DE742F484
:1039400080628AE74B784BB3B0F850300E7803446E
:1039500003EB0613CE8826F00106A3F800640B786B
:1039600030F82360760606D530F823602E4046EA0C
:10397000090620F82360CB78012B07D0097830F8AE
:103980002130134083F020028DE05EE0097830F8AA
:1039900021301340234320F8213087E0B0F8502035
:1039A0000B78024402EB0312CB8823F00103A2F848
:1039B0000834B0F850200B78024402EB0312B2F83E
:1039C0000C34C3F30903A2F80C340B6902F20C4265
:1039D0003E2B0BD95E09DB0600D1761E138800E072
:1039E00039E04FF4004848EA862609E00BB35E0848
:1039F000DB0700D0761C13884FF6FF7808EA86268E
:103A0000334313800A7830F822305B0408D530F84D
:103A100022302B4043EA0A0300E03CE020F8223049
:103A2000097851B130F8212002EA0C0282F40052E8
:103A300039E0138843F40043E3E7018801EA0C010D
:103A400081F440512143018030E02E4048F280183B
:103A500046EA080625E7002E06DA30F823602E40F5
:103A600046EA0A0620F823600B7830F823607606D1
:103A700006D530F823602E4046EA090620F8236078
:103A80000B7830F8235005EA0C0585F440552543A2
:103A900020F823507AE7254320F82350097830F89E
:103AA000212002EA0C02224320F821203846BDE8FA
:103AB000F087002070472DE9F04391F80C804C7896
:103AC0000A7848F6BF774BF68F7948F2800548F2BE
:103AD000C0064CF2800C48F68F73B8F1000F29D065
:103AE000002C30F822404FEA444448D0002C06DA3B
:103AF00030F822401C4044EA0C0420F822400A78A6
:103B000030F82240640605D530F822401C4034438A
:103B100020F822400A7830F822401C4044EA0C0485
:103B200020F822400A7830F822303B402B4320F81E
:103B3000223019E0002C30F822400CD0640605D564
:103B400030F822401C40344320F82240097830F8F5
:103B500021203A400DE0640406D530F822401C4094
:103B600044EA0C0420F82240097830F8212002EAC7
:103B700009022A4320F821200020BDE8F083002C10
:103B800006DA30F822401C4044EA0C0420F82240B7
:103B90000A7830F82240640605D530F822401C40EF
:103BA000344320F822400A7830F822401C40344345
:103BB00020F822400A7830F8223003EA09032B4328
:103BC00020F82230C2E70020704700207047012112
:103BD00020F8401F00210180818001820846704743
:103BE00030F8401F21F43F41018000207047002041
:103BF000704730B50A7BA2BB4A7848F68F75002A19
:103C00000A7848F2800430F8223015D05B0607D5D8
:103C100030F822302B4048F2C0052B4320F82230E8
:103C2000CA78012A1DD0097830F8212048F6BF73E0
:103C30001A4082F0200211E05B0407D530F82230F0
:103C40002B404CF280052B4320F82230097830F8C5
:103C500021204BF68F731A4082F44052224320F801
:103C60002120002030BD10B54A780978002A48F29A
:103C7000800330F8212005D048F6BF74224082F03E
:103C8000100204E04BF68F74224082F480521A43F3
:103C900020F82120002010BD2DE9F0470C464B787C
:103CA000097B05464FF0000948F68F7248F2800AFA
:103CB0004FF400474FF6FF78012B09D000296FD051
:103CC000E07802286DD001286CD00120BDE8F08793
:103CD000A6692069864200D9064691B1E178022999
:103CE0001ED0206A801B2062207835F820104906FB
:103CF000B5F85010294401EB001073D5A0F80C64FE
:103D000016E1B3B2E2882846616900F065FAB5F8B9
:103D100050002178284400EB0110A0F804640DE164
:103D2000216A8142207876D935F82010114048F276
:103D30008012114325F82010206A801B2062207811
:103D400035F820104906617871D511B101292AD0C2
:103D500030E0B5F85010294401EB0010B0F80C1415
:103D6000C1F30901A0F80C1400F20C403E2E07D953
:103D70007109F20600D1491E028847EA812107E055
:103D80004EB17108F20700D0491C028808EA81216F
:103D90000A4302800EE0018841F40041018009E0FD
:103DA000F0E01FE194E1B5F85020511901EB00104B
:103DB000A0F80C646289B3B22846616900F00CFA7D
:103DC0006069304460612169206A884202D9801BA1
:103DD000206202E00646C4F82090607818B10128FD
:103DE0002BD032E02FE0B5F850002178284400EBCA
:103DF0000110B0F80414C1F30901A0F8041400F292
:103E000004403E2E08D97109F20600D1491E0288ED
:103E100047EA812108E0A1E056B17108F20700D01D
:103E2000491C028808EA81210A4302800DE00EE065
:103E3000018841F40041018007E0B5F85000217885
:103E4000284400EB0110A0F80464228971E011B14C
:103E5000012927D02DE0B5F85010294401EB0010BE
:103E6000B0F80414C1F30901A0F8041400F20440EE
:103E70003E2E07D97109F20600D1491E028847EA91
:103E8000812107E04EB17108F20700D0491C028879
:103E900008EA81210A4302800BE0018841F40041D5
:103EA000018006E0B5F85010294401EB0010A0F89D
:103EB00004642289B3B22846616900F08DF9606913
:103EC000304460612169206A884202D9801B2062E7
:103ED00002E00646C4F82090607810B1012836D080
:103EE00026E0B5F850002178284400EB0110B0F826
:103EF0000C14C1F30901A0F80C1400F20C403E2E82
:103F000007D97109F20600D1491E028847EA8121CA
:103F100007E04EB17108F20700D0491C028808EA98
:103F200081210A43028003E0018841F400410180BD
:103F30006289B3B22846616900F04EF9207835F8FD
:103F4000201048F6BF72114081F030010EE1B5F843
:103F500050104819217800EB0110CFE635F82020E9
:103F600048F68F631A4042EA0A0225F82020B5F885
:103F700050002278284400EB02108BB2A0F80434E1
:103F80002289D7E7A1692069814202D9091AA16172
:103F900002E00846C4F81890B5F850102278294479
:103FA00001EB0211B1F80C24C2F30902A1F80C24B0
:103FB00001F20C413E287DD94209C00600D1521EB3
:103FC000088847EA82220AE0088840F4004007E0B7
:103FD0004208C00700D0521C088808EA8222104319
:103FE0000880BBE033BBB5F850002178284400EBD3
:103FF0000110B0F80414C1F30901A0F804142169F8
:1040000000F204403E2907D94B09C90600D15B1EC6
:10401000018847EA832307E041B14B08C90700D074
:104020005B1C018808EA8323194302E0018841F4FC
:1040300000410180607810B1012828D030E0B5F847
:1040400050002178284400EB0110B0F80C14C1F3A3
:104050000901A0F80C14216900F20C403E2907D98F
:104060004B09C90600D15B1E018847EA832307E09C
:1040700041B14B08C90700D05B1C018808EA8323C3
:10408000194302E0018841F40041018008E0B5F8DD
:1040900050104819217800EB0110218AA0F80C1467
:1040A000E069C0B3217835F82100430401D5430607
:1040B00005D400E046E044F2400318424ED135F802
:1040C0002100104048F2C002104325F8210045E0CD
:1040D000A1692069814202D9091AA16102E008465A
:1040E000C4F8189013BBB5F850102278294401EB9E
:1040F0000211B1F80424C2F30902A1F8042401F268
:1041000004413E2808D94209C30600D1521E0B883B
:1041100047EA822208E021E078B14208C30700D0D4
:10412000521C0B8808EA822213430B806178002915
:104130003FF42EAF012909D010E00A8842F4004272
:104140000A80F3E700287FF443AF3DE7B5F850203D
:104150005119227801EB0211A1F80C04207835F8EE
:1041600020104BF68F72114081F4405141EA0A0150
:1041700025F820100020A9E50021A0F844104FF4F4
:104180003F41A0F840100020704700000148FDF7B3
:1041900010BB000034270020B0F84400704710B571
:1041A00000EB42005C0800F5806008D030F8042B7A
:1041B00001F8012B120A01F8012B641EF6D1DA076F
:1041C00001D00088087010BD0020704711B980210F
:1041D000A0F84C100020704710B55B1C00EB4200AB
:1041E0005B0800F5806009D011F8012B11F8014B34
:1041F00042EA042220F8042B5B1EF5D110BDFEE735
:104200000907090E002804DB00F1E02080F8001403
:10421000704700F00F0000F1E02080F8141D704797
:1042200002E008C8121F08C1002AFAD1704770477F
:10423000002001E001C1121F002AFBD170470000DD
:10424000FCF7FEFEFEF78FFCFEF770F8FEF758F85D
:10425000FEF7B8F8FEF720F8FEF73CF9FEF7FBF89A
:10426000FDF76EFF364C002020703648FCF77CF9D5
:104270003448FCF7DDFB022233493248FCF738FCB6
:1042800032A201210020FEF72DFA00220521122082
:10429000FEF7E2F9012205212420FEF7DDF90222D2
:1042A00005213620FEF7D8F9032205214820FEF724
:1042B000D3F940F6B8373846FCF7B2FDFEF7CBF835
:1042C000A246214CB946DFF890B04FF0FF35234E9F
:1042D000083C4FF47A78224FFDF74EFF9AF8000021
:1042E00000EB40010BEB8100806880476420FCF705
:1042F00097FD29461348FCF7FDFA1248FCF721FA0E
:10430000206029460F48FCF7F5FA0E48FCF719FA29
:1043100060602168494502DD3168491C03E0414580
:1043200002DA3168491E3160484502DD3868401CB8
:1043300003E04045D0DA3868401E3860CCE7000022
:104340000C010020A4230020D8210020506F7765A5
:10435000722062790000000010010020040000209B
:10436000080000200000000000000000002F0000F6
:1043700000000700070000147F147F1400242A7F28
:104380002A120062640813230036495522500000A7
:104390000503000000001C224100000041221C0017
:1043A0000014083E08140008083E0808000000A099
:1043B0006000000808080808000060600000002095
:1043C00010080402003E5149453E0000427F400073
:1043D000004261514946002141454B3100181412F9
:1043E0007F10002745454539003C4A4949300001C6
:1043F0007109050300364949493600064949291E15
:104400000000363600000000563600000008142276
:104410004100001414141414000041221408000276
:104420000151090600324959513E007C1211127C9B
:10443000007F49494936003E41414122007F4141C8
:10444000221C007F49494941007F09090901003EBA
:104450004149497A007F0808087F0000417F4100F8
:10446000002040413F01007F08142241007F40406E
:104470004040007F020C027F007F0408107F003E56
:104480004141413E007F09090906003E4151215E3C
:10449000007F091929460046494949310001017F39
:1044A0000101003F4040403F001F2040201F003FCF
:1044B0004038403F00631408146300070870080781
:1044C00000615149454300007F41410000552A5594
:1044D0002A55000041417F0000040201020400400F
:1044E0004040404000000102040000205454547831
:1044F000007F484444380038444444200038444451
:10450000487F00385454541800087E0901020018EE
:10451000A4A4A47C007F080404780000447D40002B
:10452000004080847D00007F102844000000417F0F
:104530004000007C04180478007C080404780038EB
:104540004444443800FC242424180018242418FC73
:10455000007C0804040800485454542000043F44DC
:104560004020003C4040207C001C2040201C003C9F
:104570004030403C004428102844001CA0A0A07CEF
:10458000004464544C441414141414140000000027
:1045900000000000010203040607080900000000F3
:1045A00001020304010202030405060708090A0BBD
:1045B0000C0D0E0F10100102020304050607080976
:1045C0000A0B0C0D0E0F1010E8450008000000202B
:1045D000A423000070010008E84D0008A423002077
:1045E0006C0C00003042000892000122800110078C
:1045F00040FF404040200102150001333F400102CE
:1046000013781D43FE02010213FE1E200680402384
:10461000190101000510091320C03D000F10F80812
:10462000FF08F800003E2222E222223E7A0010100B
:1046300023613F113900FF110905030559817F608E
:10464000100840201E101010FF0403111010BA5162
:104650009C52FFA40114DF12010211E6100A3D244E
:1046600000080108020007B73008590300080209D2
:1046700003192009A1040008030A04003E12B90C22
:104680001006040B050003BC12D10C1006050C0625
:104690000004C812E90C2006060D0700054F10099A
:1046A000050008070E010006C012190C11012201B5
:1046B0005412310C20050909090254124D0C200531
:1046C0000A0A0A035412716C20050B0B0B045412D6
:1046D000BD0C20050C0C0C055412D90C20050D0D39
:1046E0000D065412296020050E0E0E075412459037
:1046F000026800012011183030C0FFC7663C180066
:1047000000E0E0FCFE060152F601000532E606FC80
:10471000F854100D80C0C0E0E0F0F0F8F878F8FF31
:1047200001000C10F87878F8F0F0E0E0C0C080806C
:104730001409040603017F311B0E67240601010FD3
:104740001F18EB52130100052011181F0F6BB972CF
:104750002011C0F0FCFE7FDFEFF7FB7DFFDEEFFFF7
:104760007777801106D80EEFFEFFFDFBF7EFDF7FB6
:10477000FEFCF8E0A50212E0970120E5200660F0BB
:10478000F8FCFE5F79EE2004F0F0F0EF12FBF3127C
:10479000F31A1007F3F000F0F8FD012009F8F80013
:1047A000F0F3F7FFFE1926FD1111299D6203213454
:1047B0001197072EF060BBBC070103070F1F3F36A0
:1047C0000310130F7FFFFFF9EFBF7FFCF7DFBEF889
:1047D00070E0E1C3FB01200CC3E1E0F078BEDFEF45
:1047E000F9FFBF9DDF7F1FFF030407203F1F0F0757
:1047F0000301D601140C2407C0E070703030B730CC
:104800000830303070E0C1839534077DFBF7F7FF47
:10481000EE2011DE4008EEEFFFF7FB7F7F693007E7
:10482000C0E06030301801123831B9151DAF0405F1
:10483000106A101642F22E22E204FA4949F94D4B51
:10484000F800060292121212F30444081202060043
:10485000FCFF03F720055ECF7CE096640403FFFCB9
:104860001F1D970413030F012E03A2046DD00451E2
:10487000312C07028EDC70F88EA0031408018FFE25
:10488000002021E6881C06092949886808031C06BF
:1048900000FF0101F9CB03340509F90101DE10160F
:1048A0000F040407100F02020F02121F0010080766
:1048B0000810101F11011D9404100A01070E1C3866
:1048C000707063E00104081C617370381C0E074AA5
:1048D000113130121830706063C3C0C0C0C3636050
:1048E00030381C0F03541C09121114121110111628
:1048F000E8042F1F084A0411010C04B108081F0026
:10490000041E8000040116010E5D8000044D50035A
:1049100010070703F3FBFB7B014006FBFBF303E3FC
:104920000C110BAFE303AF030D4F000481801D8911
:1049300003100A9FFFFDFCFCFCFF9F9F0B23BFFFA2
:104940000B000512BF9F0F00800D4A000471801DEF
:1049500066042005EBE3E3E30C1D130442FF0B02A6
:10496000137F800D4C000413C0809450053E3C38EA
:104970003901123801610B133C3C6B0E66000004D8
:104980000D149C060DFF00040D6300081EE01506C3
:1049900060053838181C011F183825050E12E06A0A
:1049A000070D4D00089C05E0F07C1ECE061F787CAC
:1049B00085036E7CDA0AEC070101070F1E7C0108F3
:1049C0000D4A0004C3FFFFB11E1C0404DAFC91CBA6
:1049D00007FFA30D4A0008BC051F7FFEE050073DFE
:1049E0008007AD55070C075B80C0FC7F1F070008E0
:1049F0002D12073DEE09200580808303012F83835C
:104A00001306191417783C9D0E64C100083DFF077A
:104A100071017D02080DFF00040D5D00081EC0F845
:104A20000B1278012DF80540083838B8F8F8F8B8B6
:104A30000B11151D050C0E5BC00004100FF0FCFFE0
:104A40003F077D7CFEFEFEFC7C000080BC16E3E799
:104A5000E7E7E33838003C3C3CFFE7E7FF3C3D0735
:104A60003FFEF822030D49000C6C05E0FC7F0F7936
:104A70000421843C04FEFE7C9503131E3F016E1E40
:104A8000850A1E01A40B0D5300043C057FFFE7803F
:104A90007C05F007F0783C1C1E0E013C051C3C78A0
:104AA000F06E030C055280E7FF7F000C0C091C31EF
:104AB000333777E7C78301B3080C06FF07C7E763FF
:104AC0003100080DD7000439802DE9031D05101DA4
:104AD000FE0F1E7FFF051DF0061D0D062D13100D88
:104AE0001102040D4D00101DE2073C05DFFEFCF035
:104AF000FB052C0483C1C1970D3C06E0E0C1C181D8
:104B00000406FC0630F8FCFF1FA00D0D4800083C11
:104B100009FEFE8E8F8F8F87875F071C05FCFFFFC6
:104B2000CF77062D76086F03CFF307138787211EF3
:104B30008E1A040D53000831F62C06C3EFFFFF3820
:104B40005A0D1D1E0C1C040F1E1E83096E1EE00351
:104B50009C07307CFFFFC3830D070D5000101C0E17
:104B6000E2CF9F1F3D78383C1E1E0F0E1EFC082D05
:104B7000E9101D8309131E0E8C1E3C04061D031034
:104B80000E68C6000C5207010DFF00040D6C0014E6
:104B90006D07101D051432F8010C0416E0E0806466
:104BA000130D5000102EC083081C0DFCFEFEFF3FAD
:104BB0003F0F0F0707010708031C043F3FFF1408BE
:104BC0001D861401102F0D4B000C1D6C033F1F1F81
:104BD000740B1D4316A2E0012D9A0A2D8D1411208D
:104BE0000F5B1E1C00103D510862FF083D800591BF
:104BF000100E5F000010A3000F012D9514C1100DC1
:104C0000FF00100DE500046D14170E1BF061170D69
:104C10005000044D07102D82084E805D033C04EFC8
:104C20001FBF610B0214E0A30D4E00144DE80A1DD6
:104C30009C0B3C049F9FFF01172EFEFB130F1607D2
:104C400003630B0D4F00042DF8103C04F8FC7ED8D4
:104C50000B3D00192F8FDF620C0E14FCE11B0D5071
:104C60000004E1DDCE7F610C0DFF00040DE80004BF
:104C70005D0A180D1A601B0D5100041811FCFCFE92
:104C8000DEDE9EBCBC787F7FFFF3E3E3F3820C0A99
:104C90006378BCBC9CDEDEFEFCFC00043D7E0C2D7B
:104CA0007B031DE70B2D85042D27043E0785120D80
:104CB0006600041D091D1D7D0D14051FE3FCFF0486
:104CC0001004FCE31F050E17E0FF1F0D5200041136
:104CD000991F3F385A041D07091E037E092E3C65A3
:104CE000040DFF00040D43001C100AF92E000831CA
:104CF0002F00083D0412650412990412D114120504
:104D0000143C07040309041201CB202C0A4083043D
:104D1000505700020102FA0D0F181A030108101A69
:104D200005010905A101A1000930093116008026FD
:104D3000FF7F751095028102C013E004330934131C
:104D4000B0043209351310110509190129051500A0
:104D500025017501950581024F12390E100A07755C
:104D600004950181427503060B1603C07B1C0630B7
:104D70002200201308211D03051F081794213C045D
:104D80000024F49421ADEC211006E52C00085B040E
:104D90004F492D182112930C122910CF372C28219E
:104DA00012CD2812C10412D90812B5241C0409021C
:104DB0002904161C0500C032095B142E027E211C3A
:104DC000040921110C221C07227A000705819B216E
:104DD00020050507050107211A01562C61721945A6
:084DE000470A06982D6907003F
:04000005080000ED02
:00000001FF
