:020000040800F2
:100000004841002005010008B70F0008A30E0008B2
:10001000B50F0008F3010008D91500080000000022
:100020000000000000000000000000003B15000878
:10003000F501000800000000251300083D15000828
:100040001F0100081F0100081F0100081F01000810
:100050001F0100081F0100081F0100081F01000800
:100060001F0100081F0100081F0100081F010008F0
:100070001F0100081F0100081F0100081F010008E0
:100080001F0100081F0100081F0100081F010008D0
:100090001F0100081F0100081F0100081F010008C0
:1000A0001F0100081F0100081F0100081F010008B0
:1000B0001F0100081F0100081F0100081F010008A0
:1000C0001F0100081F0100081F0100081F01000890
:1000D0001F0100081F0100081F0100081F01000880
:1000E0001F0100081F0100081F010008DFF810D0E1
:1000F00000F042F80048004791190008AFF3008073
:10010000484100200648804706480047FEE7FEE7D2
:10011000FEE7FEE7FEE7FEE7FEE7FEE7FEE7FEE7B7
:1001200091150008ED000008D2B201E000F8012BA3
:10013000491EFBD270470022F6E710B513460A4667
:1001400004461946FFF7F0FF204610BD30B50B46B8
:10015000014600202022012409E021FA02F59D42F7
:1001600005D303FA02F5491B04FA02F52844151ECB
:10017000A2F10102F1DC30BD064C074D06E0E0685B
:1001800040F0010394E8070098471034AC42F6D3DE
:10019000FFF7B0FF2C2300084C23000870B58C1823
:1001A00010F8015B15F0070301D110F8013B2A118B
:1001B00006D110F8012B03E010F8016B01F8016B78
:1001C0005B1EF9D12B0705D40023521E0DD401F874
:1001D000013BFAE710F8013BCB1A921C03E013F83D
:1001E000015B01F8015B521EF9D5A142D8D3002072
:1001F00070BDFEE77047704770B5044600F004F923
:100200000546601C02D004480078044400F0FCF865
:10021000401BA042FAD370BD243D00202DE9F84FC9
:10022000DFF8B891002409F1040A0AF1040B23460F
:100230000F270BF1040EC9E00125A5402A40AA4270
:100240007DD1674ED1F804C0ACEB0608B44532D07E
:1002500014DCBCF1030F3AD009DCBCF1000F2AD04A
:10026000BCF1010F1CD0BCF1020F31D11DE0BCF17B
:10027000110F17D0BCF1120F2AD119E0B8F5881F61
:1002800019D006DCB8F5803F15D0B8F5801F1FD116
:1002900011E0B8F5001F0ED0B8F5041F18D10AE020
:1002A000CB6815E0CB681B1D12E0CB6808330FE06C
:1002B000CB680C330CE08B682BB1012B4FF008039B
:1002C00003D0456104E0042302E0056100E000235F
:1002D000FF2A01D8064601E000F104064FEA840532
:1002E00001D9A5F12005D6F8008007FA05FC28EA17
:1002F0000C0803FA05F548EA0508C6F800804D68C1
:10030000ED0062D5374DAE6946F00106AE61AD69CC
:1003100024F0030605F001050095334D06EB050CAE
:10032000DCF80850A607360F07FA06F825EA080594
:10033000DFF8B880404503D14FF0000817E044E0F3
:10034000DFF8AC80404502D14FF001080FE0DFF844
:10035000A480404502D14FF0020808E0DFF8988001
:10036000404502D14FF0030801E04FF0040808FABD
:1003700006F848EA0508CCF808804D68D9F800600E
:10038000ED034D4601D5164300E096432E604D68BF
:10039000DAF80060AD03554601D5164300E09643F8
:1003A0002E604D68DBF80060ED025D4601D5164316
:1003B00000E096432E604D68DEF80060AD027546A1
:1003C00001D5164300E096432E60641C0D682A4652
:1003D000E5407FF431AFBDE8F88F00000004014034
:1003E0000000111000100240000001400008014010
:1003F000000C014000100140001401400AB10161ED
:1004000070470904FBE7000001488068704700005E
:10041000243D0020024881680278114481607047C1
:10042000243D0020074810B5016841F0100101602B
:10043000032000F067F8002000F006F800F024F830
:10044000002010BD0020024070B50D4D04464FF451
:100450007A712878B1FBF0F00A490968B1FBF0F035
:1004600000F00BFD48B9102C07D200222146501E87
:1004700000F028F800206C6070BD012070BD000005
:10048000243D0020203D00200C4808B5816941F042
:1004900001018161816901F001010091C16941F0AF
:1004A0008051C161C06900F08050009004484168EB
:1004B00021F0E06141F00071416008BD0010024090
:1004C00000000140F0B40E4B1B680C46C3F302233E
:1004D000C3F10705042D00D90425191D072901D2F0
:1004E000002300E0DB1E012606FA05F1491E21402B
:1004F00099409E40761E16403143F0BC01F082B810
:100500000CED00E0064900F0070208684FF6FF0313
:10051000184040EA0220034A104308607047000078
:100520000CED00E00000FA05014901200862704767
:1005300000000E4210B529A401461DCC86B08DE8FE
:100540001D002AA02A4C006804900020012923D015
:1005500002293AD010291DD161682268D20119D52B
:10056000C1F38342C9031DF8020009D5616804AADA
:10057000C1F34041515C1F4AB2FBF1F1484301E035
:100580001D4948436168490204D440005FF00301FB
:10059000B0FBF1F006B010BD226AC2F301210129BF
:1005A00003D1920701D5C803F4E7022905D1626A95
:1005B000920702D549F64040ECE70329EAD12168C9
:1005C0008903E7D54FF22440E4E700F0ADF8616815
:1005D000C1F38131491C4900DAE700000203040538
:1005E000060708090A0B0C0D0E0F1010010200007F
:1005F0000010024000127A0000093D002DE9F0478A
:100600000F46050061D0434E306800F00700B84245
:1006100009D2306820F0070038433060306800F0BD
:100620000700B84251D128683B4C810712D54007DA
:1006300003D5606840F4E06060602878000703D567
:10064000606840F4605060606068A96820F0F00065
:10065000084360602878C00728D06868012810D057
:100660002168022810D0890700292EDA616821F05C
:10067000030101436160FFF7C7FE804641F28839FC
:100680000DE021688903EFE78901EDE7FFF7BCFE84
:10069000A0EB0801494502D90320BDE8F087606856
:1006A000696800F00C00B0EB810FEFD1306800F00A
:1006B0000700B8420BD9306820F00700384330609B
:1006C000306800F00700B84201D00120E5E7287843
:1006D000400705D56068E96820F4E0600843606081
:1006E0002878000706D56068296920F4605040EA40
:1006F000C100606000F028F86168084AC1F3031186
:10070000515CC8400649086006480068FFF79CFE37
:100710000020C2E70020024000100240142300081D
:10072000203D0020283D0020044805490068496814
:10073000044AC1F3C221515CC8407047203D0020EB
:10074000001002402423000812A185B00FC98DE8D3
:100750000F0014A0144A006804905168134801F077
:100760000C03042B10D0082B0ED1C1F38343C90313
:100770001DF803000AD5516804AAC1F34041515C39
:100780000A4A5043B0FBF1F005B0704708494843AE
:10079000FAE7000002030405060708090A0B0C0D1E
:1007A0000E0F1010010200000010024000127A002B
:1007B00000093D002DE9F84F040070D02078C04DAD
:1007C000C00749D06868C0F38100012807D0686875
:1007D000C0F38100022809D16868C00306D52868E3
:1007E000800339D560680028E7D035E06068B0F54F
:1007F000803F0BD010B1B0F5A02F11D0286820F4A5
:1008000080302860286820F4802002E0286840F4C6
:1008100080302860606890B1FFF7F6FD06460AE078
:10082000286840F480202860F0E700BFFFF7ECFD67
:10083000801B642873D828688003F7D50CE0FFF785
:10084000E3FD064605E000BFFFF7DEFD801B6428E0
:10085000F0D828688003F7D420789A4E80074FF0AC
:1008600001094FF0000839D5686810F00C0F07D067
:100870006868C0F38100022809D16868C00306D403
:100880002868800714D52069012808D110E0206964
:10089000B0B1C6F80090FFF7B7FD074605E00AE1E2
:1008A000FFF7B2FDC01B0228C4D828688007F7D51F
:1008B0002868616920F0F80040EAC10028600DE076
:1008C000C6F80080FFF7A0FD074604E0FFF79CFD97
:1008D000C01B022823D828688007F7D42078000797
:1008E0002CD57948A169D9B1C0F80090FFF78CFDEB
:1008F000074604E0FFF788FDC01B02280FD8686A8E
:100900008007F7D571484FF4FA510068B0FBF1F059
:10091000009000BF0098411E0091FAD20EE080E0E6
:10092000C0F80080FFF770FD074604E0FFF76CFD9C
:10093000C01B022875D8686A8007F7D42078400762
:1009400060D5E8690027C00008D4E86940F080500D
:10095000E861E869012700F0805000905C48016878
:10096000C90513D40168834641F480710160FFF723
:100970004BFD824606E000BFFFF746FDA0EB0A00F4
:1009800064284ED8DBF80000C005F5D5E0680128E2
:100990000AD008B1052813D0286A20F00100286287
:1009A000286A20F0040002E0286A40F00100286272
:1009B000E06841F2883B98B1FFF726FD82460BE0E4
:1009C000286A40F004002862EEE700BFFFF71CFD34
:1009D000A0EB0A0159455AD8286A8007F6D50CE0E1
:1009E000FFF712FD824605E0FFF70EFDA0EB0A01BE
:1009F00059454CD8286A8007F6D41FB1E86920F021
:100A00008050E861E06988B36968C1F38101022917
:100A100044D00228C6F8608004D0FFF7F5FC0446F5
:100A200038E034E0FFF7F0FC074604E0FFF7ECFCA9
:100A3000C01B02282BD828688001F7D4206AB0F5A3
:100A4000803F05D16868A16820F4003008436860E1
:100A5000D4E908010843696821F474110843686007
:100A6000C6F86090FFF7D0FC044606E025E000BF22
:100A7000FFF7CAFC001B022809D828688001F7D5B7
:100A80001BE000BFFFF7C0FC001B022802D90320B7
:100A9000BDE8F88F28688001F4D40EE00128F7D073
:100AA0006868226A00F48031914204D1616A00F4DE
:100AB0007010884201D00120EAE70020E8E700003A
:100AC000001002400000424280044242203D0020CB
:100AD00000700040F8B505004FF0000016460C46C7
:100AE000009006D02CB100226946284600F019F883
:100AF00008B10120F8BD287B2070E87BE070697B9D
:100B00006170A97BA17056B100F016FCE0706078AE
:100B100000F012FC6070A07800F00EFCA0700020C5
:100B2000F8BD2DE9F04791460C465FEA00084AD02F
:100B300084B3D8F800004068400744D4404600F031
:100B400099FC4FF461620546B0FBF2F1B0FBF2F3A1
:100B500002FB13503C23B0FBF3F0B5FBF2F66070E0
:100B600002FB1650B0FBF3F203FB1200A070182931
:100B700031D31820B1FBF0F7B1FBF0F200FB1210FB
:100B80002070404600F06FFC411C04D0A84202D9FE
:100B9000461B02E017E04FF0FF36A7EB071000EB13
:100BA0004000C0EB001005EBC0152946404600F0A0
:100BB000B0FC40B9701C01D0711900E031464046CC
:100BC00000F093FC10B10120BDE8F08739464046A3
:100BD00000F0BDFB00E02170B9F1000F0BD02078D0
:100BE00000F0AAFB2070607800F0A6FB6070A0788F
:100BF00000F0A2FBA0700020E6E7000070B5040042
:100C000003D0607C002610B105E0012070BD267481
:100C1000204600F043F802206074204600F010F9EE
:100C2000042578BB204600F0E9FB58BB20684168EA
:100C300021F007014160A06820B11748016821F048
:100C4000010101601448001F0168A26821F460716D
:100C5000114301606068411C04D10120FFF76AFC68
:100C600080B1401E21688A6822F00F0242EA1042D9
:100C70008A602168CA6860F30F02CA60204600F0EB
:100C8000D7FB08B16574C0E7E67301206073A073F9
:100C90006074002070BD0000306C004008B5006832
:100CA000084988420DD1FFF73FFC0748C16941F070
:100CB0000061C161C069054900F000600090012039
:100CC000086008BD00280040001002403C04424279
:100CD0002DE9F0410D4604003BD0C5B3207C01282E
:100CE0003AD04FF0010884F8108002206074E87850
:100CF00072B300F018FBE073687800F014FB6073C7
:100D0000A87800F010FBA073C2B2617BE07B00F01A
:100D1000C1FB20732870204600F0ACFB4FF46161EA
:100D2000B0FBF1F1002518292DD91822B1FBF2F101
:100D3000A1EB011101EB4101C1EB011100EBC11667
:100D40003146204600F0E5FB0427C8B90BE000E07F
:100D500004E00120BDE8F0810220FBE7E073687841
:100D60006073A878CFE7204600F07DFB411C0AD0D5
:100D7000B04208D206490144204600F0B6FB10B14B
:100D800067742574E5E784F8118025740020E1E795
:100D9000805101002DE9F0410D46040024D01DB31F
:100DA000207C012823D04FF0010884F81080022015
:100DB00060742878EAB100F0B6FA4FF4616100FB84
:100DC00001F6687800F0AFFAC0EB001006EB800681
:100DD000A87800F0A8FA35182946204600F099FBBB
:100DE0000026042710BB0FE00120BDE8F08102209F
:100DF000FBE74FF4616148436978C1EB011100EBF7
:100E00008100A9784518E7E72068416821F00501CD
:100E10004160204600F027FB411C0AD0A84208D2BE
:100E200006490144204600F060FB10B16774267447
:100E3000DAE784F8118026740020D6E7805101009B
:100E400070B504000AD02068416821F008014160B3
:100E5000FFF7DAFA05464FF47A7608E0012070BD14
:100E6000FFF7D2FA401BB04201D9032070BD2068C1
:100E700040680007F4D5002070BD10B5401EB0F1E9
:100E8000807F01D3012010BD4FF0E02460610F216D
:100E9000601700F0B7FB0020A06107202061002050
:100EA00010BDFEE72DE9F04186B0002420480094F3
:100EB000019402940394816941F010018161816978
:100EC00001F010010491816941F020018161816983
:100ED00001F020010491816941F004018161806980
:100EE000144F00F004004FF40055049000222946EE
:100EF0003846FFF783FADFF8408000228F21404612
:100F0000FFF77CFA0095022601250396CDE90154EE
:100F100069463846FFF782F98F20CDE90005CDE913
:100F2000024669464046FFF779F906B0BDE8F08110
:100F30000010024000100140000801401CB50024D0
:100F40001B480194194900940160611E41604FF4EF
:100F500080718160FFF752FE08B1FFF74CF917204E
:100F60008DF8040020208DF805008DF80640012240
:100F700001A90F48FFF70EFF08B1FFF73CF9032066
:100F80008DF8000011208DF8010013208DF802006B
:100F900024208DF80300012269460548FFF798FEDA
:100FA000002801D0FFF727F91CBD000000280040F1
:100FB000303D0020FEE7704770B5002404F1B0001A
:100FC000C0B2002100F06CF90021084600F068F979
:100FD0000021102000F064F900250121002000F01C
:100FE0005FF96D1CEDB2802DF7D3641CE4B2082CC0
:100FF000E4D370BD2DE9F047984617468246002697
:101000000C46DDF8209011E02146504600F0BEF875
:10101000554607E019F806000121761C00F040F95A
:101020006D1CEDB2BD42F5D3641CE4B24445EBD374
:10103000BDE8F08730B585B0002002905148816945
:1010400041F00801816180694FF4E64400F0080036
:1010500004900120CDE9004002204B4D03906946E9
:101060002846FFF7DBF8012221462846FFF7C6F99C
:10107000AC14002221462846FFF7C0F96420FFF790
:10108000BBF8012221462846FFF7B8F90021AE201F
:1010900000F006F90021084600F002F900211020B6
:1010A00000F0FEF80021402000F0FAF80021812035
:1010B00000F0F6F80021CF2000F0F2F80021A12086
:1010C00000F0EEF80021C82000F0EAF80021A62088
:1010D00000F0E6F80021A82000F0E2F800213F200F
:1010E00000F0DEF80021D32000F0DAF800210846F5
:1010F00000F0D6F80021D52000F0D2F80021F02031
:1011000000F0CEF80021D92000F0CAF80021F1202B
:1011100000F0C6F80021DA2000F0C2F80021122009
:1011200000F0BEF80021DB2000F0BAF800214020DA
:1011300000F0B6F80021202000F0B2F800210220D3
:1011400000F0AEF800218D2000F0AAF80021142054
:1011500000F0A6F80021A42000F0A2F80021A620AB
:1011600000F09EF80021AF2000F09AF80021AF2097
:1011700000F096F8FFF720FF0021084600F006F87F
:1011800005B030BD00100240000C014010B504460F
:10119000B031C8B2002100F083F8102040EA1410EA
:1011A000002100F07DF804F00F00BDE8104040F091
:1011B0000100002100F074B82DE9F04115460E46FB
:1011C0000746FFF7E3FF0F48002400EB85150121D8
:1011D000285D00F065F8641CE4B2102CF7D3761C8F
:1011E000F1B23846FFF7D2FF00242819012190F808
:1011F000200000F055F8641CE4B2102CF5D3BDE8D3
:10120000F0810000000000202DE9F041203A002488
:101210000D468046D7B27F2803D900208D1C80461A
:10122000EDB22946FFF7B2FF0F4E00BF04EB0710E7
:101230000121305C00F034F8641CE4B2082CF5D3D2
:101240006D1CE9B24046FFF7A1FF002404EB071034
:1012500030440121007A00F023F8641CE4B2082C29
:10126000F4D3BDE8F0810000241D00082DE9F04111
:1012700017460E46044600250CE031462046FFF78F
:10128000C3FF0834E4B2782C02D90024B61CF6B2AD
:101290006D1CEDB27A5D002AEFD1BDE8F08100004F
:1012A0002DE9F0471E4D06464FF4005A09B10122C0
:1012B00000E0002251462846FFF7A0F84FF480488E
:1012C000002241462846FFF799F800244FF40079A0
:1012D0004FF48077002239462846FFF78FF8300612
:1012E00001D5012200E0002249462846FFF786F892
:1012F000012239462846FFF781F87006641C060E65
:10130000E4B2082CE6D3012241462846FFF776F8DE
:1013100051462846BDE8F0470122FFF76FB80000AC
:10132000000C01407047010901EB810100F00F0042
:1013300000EB4100C0B27047002102E00A38C0B2A1
:10134000491C0A28FAD2090740EA116070472DE9C2
:10135000F04104460025C07B627BA37B42E0012A6A
:1013600016D0032A14D0052A12D0072A10D0082A32
:101370000ED00A2A0CD00C2A0AD0042A10D0062A31
:101380000ED0092A0CD00B2A0AD0022A0DD028E050
:101390001F2B0CD30C2A05D101221346401C20E040
:1013A0001E2B04D30123521C1BE01C2B02D203F181
:1013B000010316E011D183B29E0710D16426B3FB5E
:1013C000F6F706FB173636B94FF4C876B3FBF6F7D7
:1013D00006FB17331BB91D2303E01D2B01D103228C
:1013E00001236D1C8D42BAD3D1B2E0736173DAB2BE
:1013F000A27300F04FF82073BDE8F08170B5044689
:10140000FFF702F805464FF47A7606E0FEF7FCFF98
:10141000401BB04201D9032070BD2068406880069F
:10142000F4D52068416841F010014160002070BD92
:1014300070B504460068416821F010014160FEF774
:10144000E3FF05464FF47A7607E000BFFEF7DCFFC6
:10145000401BB04201D9032070BD2068406880065F
:10146000F4D5002070BD0168086A496A89B241EA72
:1014700000407047006881698AB2C1698BB2816996
:1014800089B28A4203D0C06961F31F40704743EAC2
:1014900002407047F0B56424C1EBC1030927A500E1
:1014A000072603EB01130329B3FBF7F100F5FA60FC
:1014B000114401440AD2401EB0FBF4F201EB90014A
:1014C000B0FBF5F0891A0844001D08E0B0FBF4F207
:1014D00001EB9001B0FBF5F0891A0844801CB0FBC9
:1014E000F6F106FB1100C0B2F0BD70B50D46064620
:1014F0000024FFF783FF48B93168280C086231687F
:10150000A8B248623046FFF793FF00B1012420469D
:1015100070BD70B50D4606460024FFF76FFF48B951
:101520003168280C88613168A8B2C8613046FFF77D
:101530007FFF00B10124204670BD7047FEF76ABFEF
:1015400030B58FB028216846FEF7F5FD14210AA8B2
:10155000FEF7F1FD01210804CDE9001000240294FA
:1015600002250491CDE907504FF4E0100990684638
:10157000FFF720F90F20CDE90A056802CDE90C40FC
:1015800002210AA80E94FFF739F80FB030BD000011
:101590000D48016841F00101016041680B4A1140AA
:1015A000416001680A4A11400160016821F480210C
:1015B0000160416821F4FE0141604FF41F01816028
:1015C0000449C00308607047001002400000FFF8A3
:1015D000FFFFF6FE08ED00E0FEE700000FB4084B49
:1015E00010B504A902AA039800F02CF8044602A939
:1015F000002000F0C8F9204610BC5DF814FB000084
:10160000871900080907090E002804DB00F1E02013
:1016100080F80014704700F00F0000F1E02080F81F
:10162000141D704702E008C8121F08C1002AFAD131
:1016300070477047002001E001C1121F002AFBD152
:10164000704700002DE9FF4F8BB088460546002605
:1016500006E025280BD0DDE90D1290476D1C761CA5
:1016600028780028F5D10FB03046BDE8F08F00246F
:10167000A146A2460122AE4900E0044315F8013F0D
:10168000203B02FA03F00842F7D128782A2810D02C
:101690006FF02F022878A0F13001092915D809EB45
:1016A000890102EB410144F0020400EB01096D1CC9
:1016B000F0E758F8041B5FEA010903D544F400542D
:1016C000C9F1000944F002046D1C28782E2817D1B6
:1016D00015F8010F44F004042A280ED06FF02F02F1
:1016E0002878A0F1300109290AD80AEB8A0102EB17
:1016F000410100EB010A6D1CF2E758F804AB6D1CC8
:1017000028786C280FD006DC4C2817D068280DD01C
:101710006A2814D104E0742810D07A280FD10DE083
:1017200044F400140AE044F4801401E044F440144A
:101730006978814202D104F580146D1C6D1C2878F3
:10174000692865D006DC00288DD0632827D064285E
:1017500006D15DE06E2808D073282AD0752877D08E
:10176000DDE90D129047761CE0E0C4F30250022838
:1017700009D003280DD0D8F8001004280DD00E6031
:1017800008F10408D2E0D8F80010F217C1E90062AD
:10179000F6E7D8F800100E80F2E70E70F0E718F8C0
:1017A000041B8DF8001000208DF80100EB4601208D
:1017B00003E058F804BB4FF0FF3061074FF000071B
:1017C00001D40AE07F1C57450DDA8742FADB1BF88B
:1017D00007100029F6D106E07F1C8742FCDB1BF8CE
:1017E00007100029F8D1DDE90D23A9EB0700814698
:1017F000214600F0B1F83044C61904E0DDE90D12CD
:101800001BF8010B90477F1EF8D22146484688E01E
:1018100058F8040BC4F302514FF00A0B032900D10E
:1018200000B2042900D140B2002802DA40422D2142
:1018300002E0210505D52B218DF82410012104E0BB
:1018400006E0E10710D02021F6E708AF089113E089
:1018500058F8040BC4F302514FF00A0B032900D1CE
:1018600080B2042900D1C0B20021EEE75946FEF74C
:101870006DFC303107F8011D0028F7D1ADEB0700F2
:1018800000F1200B600702D524F4803401E04FF012
:10189000010ADA4502DDAAEB0B0000E000208246D7
:1018A00000EB0B0108980144A9EB01000A90E0034A
:1018B00006D4DDE90D2321460A9800F04DF80644D0
:1018C0004FF0000908E009A911F80900DDE90D123F
:1018D000904709F10109761C08998945F3DBE0037B
:1018E0000CD5DDE90D2321460A9800F035F80644B1
:1018F00004E0DDE90D1230209047761CBAF10001BA
:10190000AAF1010AF5DC05E0DDE90D1217F8010B7B
:101910009047761CBBF10001ABF1010BF4DC0A9897
:101920002146DDE90D2300F005F806446D1C97E61D
:10193000092801002DE9F041044600251E461746FE
:10194000880404D405E039462020B0476D1C641E8D
:10195000F9D52846BDE8F0812DE9F041044600257F
:101960001E469046C80301D5302700E02027880492
:1019700004D505E041463846B0476D1C641EF9D5D4
:101980002846BDE8F0810A68531C0B601070704750
:101990000EB5FEF747FDFFF7D3FDFFF783FAFFF71C
:1019A000CDFAFFF747FBFFF707FBD2A2012100208A
:1019B000FFF75CFC002205211220FFF7FDFB01224E
:1019C00005212420FFF7F8FB022205213620FFF72E
:1019D000F3FB032205214820FFF7EEFB40F6B83069
:1019E000FEF70AFCC64C002108238022084600941A
:1019F000FFF700FB3220FEF7FFFB04F580650021B6
:101A00000823802208460095FFF7F4FA3220FEF7FB
:101A1000F3FB04F5006600210823802208460096A7
:101A2000FFF7E8FA3220FEF7E7FB04F540670021F4
:101A30000823802208460097FFF7DCFA3220FEF7E1
:101A4000DBFB04F580580021082380220846CDF8EE
:101A50000080FFF7CFFA3220FEF7CEFB04F5A05945
:101A60000021082380220846CDF80090FFF7C2FA33
:101A70003220FEF7C1FB04F5C0500021009008237E
:101A800080220846FFF7B6FA3220FEF7B5FB04F5D0
:101A9000E05000210090082380220846FFF7AAFAB0
:101AA0003220FEF7A9FB04F5005000210090082326
:101AB00080220846FFF79EFA3220FEF79DFB04F5D0
:101AC000105000210090082380220846FFF792FA68
:101AD0003220FEF791FB04F5205A002108238022D2
:101AE0000846CDF800A0FFF785FA3220FEF784FB08
:101AF00004F5305000210090082380220846FFF7AB
:101B000079FA3220FEF778FB04F5405B00210823C8
:101B100080220846CDF800B0FFF76CFA3220FEF7BD
:101B20006BFB04F5505000210090082380220846EA
:101B3000FFF760FA3220FEF75FFB002108238022C6
:101B400008460094FFF756FA3220FEF755FB0021B5
:101B50000823802208460095FFF74CFA3220FEF752
:101B60004BFB00210823802208460096FFF742FA2B
:101B70003220FEF741FB002108238022084600970F
:101B8000FFF738FA3220FEF737FB002108238022C6
:101B90000846CDF80080FFF72DFA3220FEF72CFB27
:101BA0000021082380220846CDF80090FFF722FA92
:101BB0003220FEF721FB04F5C050002100900823DD
:101BC00080220846FFF716FA3220FEF715FB04F5CF
:101BD000E05000210090082380220846FFF70AFA0F
:101BE0003220FEF709FB04F5005000210090082385
:101BF00080220846FFF7FEF93220FEF7FDFA04F5D1
:101C0000105000210090082380220846FFF7F2F9C7
:101C10003220FEF7F1FA0021082380220846CDF891
:101C200000A0FFF7E7F93220FEF7E6FA04F530509E
:101C300000210090082380220846FFF7DBF93220BC
:101C4000FEF7DAFA0021082380220846CDF800B01A
:101C5000FFF7D0F93220FEF7CFFA04F550500021FB
:101C60000090082380220846FFF7C4F93220FEF7CF
:101C7000C3FAA4F580600021009008238022084662
:101C8000FFF7B8F94FF47A763046FEF7B5FAFFF76A
:101C900093F91C4C002204F1100502A91A48FEF722
:101CA00040FF002201A91848FEF714FF9DF80A0022
:101CB00000909DF809309DF8082014A12046FFF7F8
:101CC0008DFC9DF807009DF8063000F5FA60009045
:101CD0009DF8052010A12846FFF780FC224601212F
:101CE0001420FFF7C3FA2A4605211420FFF7BEFA95
:101CF000CAE70000506F776572206279000000002B
:101D000000050020003D0020303D00202532643ACF
:101D10002532643A253264002532642D2532642D43
:101D200025326400000000000000000000000000F8
:101D300000000000000000F8000000000000003378
:101D40003000000000100C06100C0600000000001F
:101D50000000000040C07840C0784000043F040408
:101D60003F040400007088FC08300000001820FFC9
:101D7000211E0000F008F000E018000000211C0304
:101D80001E211E0000F00888700000001E21232480
:101D90001927211010160E0000000000000000009E
:101DA00000000000000000E018040200000000072E
:101DB0001820400000020418E00000000040201835
:101DC00007000000404080F0804040000202010F08
:101DD00001020200000000F0000000000101011FEC
:101DE00001010100000000000000000080B0700050
:101DF00000000000000000000000000000010101E0
:101E0000010101010000000000000000003030006E
:101E10000000000000000000806018040060180648
:101E20000100000000E010080810E000000F102082
:101E300020100F00001010F8000000000020203FCC
:101E40002020000000700808088870000030282456
:101E500022213000003008888848300000182020F7
:101E600020110E000000C02010F80000000704241C
:101E7000243F240000F80888880808000019212061
:101E800020110E0000E0108888180000000F1120BB
:101E900020110E0000380808C83808000000003F74
:101EA000000000000070880808887000001C2221D3
:101EB00021221C0000E010080810E0000000312280
:101EC00022110F00000000C0C00000000000003020
:101ED0003000000000000080000000000000806072
:101EE00000000000000080402010080000010204F3
:101EF00008102000404040404040400004040404DA
:101F00000404040000081020408000000020100895
:101F100004020100007048080808F00000000030CA
:101F200036010000C030C828E810E0000718272458
:101F300023140B000000C038E0000000203C230206
:101F40000227382008F8888888700000203F202069
:101F500020110E00C030080808083800071820209B
:101F60002010080008F808080810E000203F202092
:101F700020100F0008F88888E8081000203F202073
:101F80002320180008F88888E8081000203F200067
:101F900003000000C030080808380000071820209F
:101FA000221E020008F808000008F808203F21015E
:101FB00001213F20000808F8080800000020203F09
:101FC0002020000000000808F8080800C080808079
:101FD0007F00000008F888C028180800203F200172
:101FE0002638200008F8080000000000203F2020CC
:101FF0002020300008F8F800F8F80800203F003FE3
:10200000003F200008F830C00008F808203F2000FA
:1020100007183F00E01008080810E0000F1020200B
:1020200020100F0008F808080808F000203F2101E0
:1020300001010000E01008080810E0000F18242437
:1020400038504F0008F8888888887000203F2000AA
:10205000030C302000708808080838000038202160
:1020600021221C00180808F8080818000000203F6A
:102070002000000008F808000008F808001F2020D1
:1020800020201F000878880000C8380800000738A2
:102090000E010000F80800F80008F800033C0700F3
:1020A000073C0300081868808068180820302C035B
:1020B000032C30200838C800C83808000000203F32
:1020C0002000000010080808C83808002038262121
:1020D00020201800000000FE020202000000007F25
:1020E00040404000000C30C0000000000000000133
:1020F0000638C00000020202FE000000004040401E
:102100007F00000000000402020204000000000042
:1021100000000000000000000000000080808080BF
:1021200080808080000202040000000000000000A7
:102130000000000000008080808000000019242240
:1021400022223F2008F8008080000000003F11207C
:1021500020110E000000008080800000000E112081
:1021600020201100000000808088F800000E11205F
:1021700020103F200000808080800000001F22226D
:1021800022221300008080F0888888180020203FD9
:10219000202000000000808080808000006B9494EC
:1021A0009493600008F8008080800000203F2100A8
:1021B00000203F2000809898000000000020203F71
:1021C00020200000000000809898000000C080805F
:1021D000807F000008F8000080808000203F2402FB
:1021E0002D302000000808F8000000000020203FEB
:1021F000202000008080808080808000203F2000A0
:102200003F20003F8080008080800000203F210030
:1022100000203F200000808080800000001F2020E0
:1022200020201F00808000808000000080FFA1200F
:1022300020110E000000008080808000000E112020
:1022400020A0FF80808080008080800020203F21AF
:102250002000010000008080808080000033242462
:1022600024241900008080E0808000000000001F0E
:10227000202000008080000000808000001F2020BF
:1022800020103F20808080000080808000010E3080
:102290000806010080800080008080800F300C03E1
:1022A0000C300F0000808000808080000020312EE4
:1022B0000E312000808080000080808080818E70C0
:1022C0001806010000808080808080000021302C72
:1022D0002221300000000000807C0202000000008B
:1022E000003F404000000000FF0000000000000030
:1022F000FF0000000002027C800000000040403F20
:1023000000000000000601010202040400000000B9
:1023100000000000000000000000000001020304B3
:102320000607080900000000010203044C2300080E
:1023300000000020303D00009C010008782A0008C1
:10234000303D002018040000341600082A80011FC8
:1023500040FF404040200101181A3F20190102159A
:10236000784BFE02010215FE2E8040231901010563
:1023700012091320C026F808FF08F80008123E22B0
:1023800022E222223E1623613F1139000A12FF1178
:102390000905030559817F180840201E101010FF01
:1023A0000403131010599C5AFF080112100A030568
:1023B0000911FF118905C312E012F0198B51073D75
:1023C0004428FF11AA44700B83013844829292740E
:1023D000018328087C44FF017D7D7D044905647DDF
:1023E00001FF9A0102818A010B013669419949FA7C
:1023F0000101011D38083F3F0303F31311011E01C2
:10240000F1116181312D816111F1393B4141072C7D
:1024100001C1211EAB21C114390139360738D3332C
:1024200003033F3F23E0E06A7FA81A7FBF4C0618F2
:10243000060A213640407F40401C1F204001AB204F
:102440001F14113A600E6C300C034601361C07074E
:10245000060178090404048444444484071C048469
:10246000C405790E09110A7911294003410707268D
:1024700010181412112E0F1010100F0F331F1026EA
:10248000081012120D22186B0D120A592959070152
:10249000605A8001013D20087F030C300C037F252A
:1024A00038545458257C04047805223C40407C175D
:1024B000FFAAAAAA28080A2CFF681E264949493201
:1024C000101D020408100F01B01A8001511DF0F810
:1024D000FC1C01046AFCF8F0200B3C7FFFE7C3C33F
:1024E000E7FF7E3C1D03070F0E01340F07034D1855
:1024F0007E7FE717015A1808C0E06060E0C0010164
:102500000918230558C0E0C0803D03070606ED0901
:1025100019231901015F1A3C01918A80ED05701899
:102520003C3C380C5E030707EF01FF01113A8001C4
:10253000390A00096BF0F8381C1838F8F01D7EFFD6
:10254000FFC30134FFFF7E50090307070E0607078C
:1025500003075C3C3C66667E1C180AC0E0703030A5
:1025600070E1C10101091724190101585F03070E29
:102570000C0C0EEF0916241901015E873C7C66667F
:102580003E18848080800570183C3C380C5D07073D
:1025900007EF01FF01131A80016100096BC0F0F021
:1025A0003838F8F0E0300B3CFFFFE7C3C3E7FFFF2C
:1025B0003C6808010307070703031B1901015C00BE
:1025C0000D19C0E0F078383878F0E1C10101055705
:1025D00080C0C0C0680A030F0F1E1C1C1E0F07F12D
:1025E0000913250B1803039D014458091C7E7EE73F
:1025F000E7FE7E18EF1901810570183C3C381A0778
:102600000101FF017C076DE0F03030F0E050093C43
:102610007EE7C3C3E77E3C1B01030172014C1C3CF7
:102620003C160957ED1BF838010A1BF8F1055780D5
:10263000C0C0801D070F1F1C01041B1F0F07055C76
:1026400001030301680A187EFFE7C3C3E7FF7EEEBC
:1026500083C0C01A3C01016589E107FF07070C0C24
:102660000F07017C1AE001016F773C7E6E667E3CAD
:102670001A010181055C183C3C18000B1BC0F0F0EE
:1026800078383878F0F0C00C1A80C0C01F013C00C8
:102690000E18030F0F1E1C1C1E8F87838080800561
:1026A0005C010303011D7EFFFFC30144FFFF7E5F4A
:1026B000C0C0E0E0E0C08D1A3C010262103A0101A6
:1026C000510009FF030F0F1C1C0F0F03017B056F47
:1026D000C0E0E0E096083C3E3C3C9301010D5D18F3
:1026E0003C3C18ED0F1B70303070E0C02419010124
:1026F00058180A03070E0C0C0E8783800109172453
:102700001901015C1D7EFFFFC3012CFFFF7EED4F11
:10271000E0E06070E0E0F107623C7E66667E3C3A95
:10272000010141000AFF020F1F1C18181C1F0F0196
:102730007B0570C0E0E0C01A3C0191930101AA1C26
:10274000180955EE0B1D6060F01AC0010258801781
:10275000030706060703091A601A0301015C280A29
:10276000187EFFE7C3C3E7FF7EEC1CE0F070013486
:10277000F0E0C02B3C7E1803637E3C6301011D0F1B
:102780001F3F380104FF3F1F0F017A0570C0E0E0D2
:10279000E0951C3C3C389301011A3C01095EEF0DA9
:1027A0001B40E0C080210659E06060E0C0051903CD
:1027B0000703031A80010E180307060607230143C7
:1027C00038091C7E7EE7E7FE7E18ED1BF070012ABB
:1027D000F0F1000B6A3C7FFFE7C3C3E7FFFE3C1D3F
:1027E0000F1F3F3801543F1F0F1A010101FF0171F4
:1027F0000570C0E0E0E095183C3C188301010F5DD6
:102800001C7E66663E3CEF1901091B200F1BE07021
:10281000303070E024013C1A030101181A800108CD
:10282000081783870E0C0C0E072401445F3C7E665C
:10283000667E38EF3DE07060E0EF1D7EFFFFC30174
:10284000046AFFFF7E500A020F1F1C38181C1F0F5E
:102850003A010101FF01701AE0010170851C3C3C46
:10286000181A01016100095D187E7EE7E77E7E3857
:10287000051B80C0C080000B57C0E0F07838387866
:10288000F0F0C05C030303EF09129D000C5C808331
:102890008F0F1E1C1C1E0F07031A3C0169F12FC06D
:1028A000E0E0E0C080156809FFFFE7C3C3E7FFFF72
:1028B0001B01645808070F1F1C1C0F0FEE1A0101A3
:1028C00001FF017087E0F03030F0C00266801A3CF2
:1028D000017157010103030301000A5C7EFFE7C396
:1028E000C3E7FF7E100C1A80C0C0E51DE0F0F83889
:1028F000010457F8F0E019EF49EE01161D070F1F0C
:102900001C01045C1F0F07753C3C3C381B80C00158
:102910004A801600086DFEE7C3C3E77E3C0D5C07E6
:102920000F0C0CED01FF011E5009C0F0F03838F813
:10293000F0E03A8001016276083C3E3C3C470303EC
:10294000070703031D7EFFFFC301045CFFFF7E0C2E
:102950001780C0C0E2000E57010101C1F1F17838C3
:102960003878F0F0C00D1A030303011F000A5C0F52
:102970000F1E1C1C1E0F070385183C3C181A8001F3
:1029800071076F3C7E66667E3C1A070101FF017A83
:10299000480A80F0F838181838F8F00E390101624A
:1029A000573C7E66667E3C30090307070E06070724
:1029B000031D7EFFFFC301045CFFFF7E1AC00101FF
:1029C000181A0101080817C1E170303070E02401C5
:1029D000401A0301091B200F1B070E0C0C0E0724C5
:1029E000014195183C3C1884808080066F3C3C7CFB
:1029F0003C101A070101FF017B1DF0F8FC1C01646B
:102A0000FCF8F00363808030093C7EE7E3C3E77E97
:102A10003C1D03070F0E01240F0703000B5C087E0B
:102A2000FFE7C3C3E7FF7E181AC001091C210D1C74
:102A3000E06060E023013C1A0301091C210D1C0722
:102A4000060607230141953C3C3C38AB80801802C8
:102A5000703C0B5E0307EE0160800968683A6D7395
:102A60003A7373180864642D6D6D2D790171132408
:082A7000F432017210000000B5
:04000005080000ED02
:00000001FF
