:020000040800F2
:10000000684D00200501000801100008DB0D000804
:10001000E50F0008C70100085115000800000000A6
:10002000000000000000000000000000B5140008FF
:10003000C90100080000000049130008B7140008B7
:100040001F0100081F0100081F0100081F01000810
:100050001F0100081F0100081F0100081F01000800
:100060001F0100081F0100081F0100081F010008F0
:100070001F0100081F0100081F0100081F010008E0
:100080001F0100081F0100081F0100081F010008D0
:100090001F0100081F0100081F0100081F010008C0
:1000A0001F0100081F0100081F0100081F010008B0
:1000B0001F0100081F0100081F0100081F010008A0
:1000C0001F0100081F0100081F0100081F01000890
:1000D0001F0100081F0100081F0100081F01000880
:1000E0001F0100081F0100081F010008DFF810D0E1
:1000F00000F02CF80048004791150008AFF300808D
:10010000684D00200648804706480047FEE7FEE7A6
:10011000FEE7FEE7FEE7FEE7FEE7FEE7FEE7FEE7B7
:1001200009150008ED000008D2B201E000F8012B2B
:10013000491EFBD270470022F6E710B513460A4667
:1001400004461946FFF7F0FF204610BD064C074D48
:1001500006E0E06840F0010394E807009847103497
:10016000AC42F6D3FFF7C6FF301B0008501B000857
:1001700070B58C1810F8015B15F0070301D110F869
:10018000013B2A1106D110F8012B03E010F8016B96
:1001900001F8016B5B1EF9D12B0705D40023521E19
:1001A0000DD401F8013BFAE710F8013BCB1A921C81
:1001B00003E013F8015B01F8015B521EF9D5A1427F
:1001C000D8D3002070BDFEE77047704708B50448DB
:1001D0000021009008238022084600F030FF08BD6F
:1001E0004409002008B5044800210090082380221B
:1001F000084600F024FF08BD4405002008B5044867
:100200000021009008238022084600F018FF08BD56
:100210004401002010B500220521122000F0F2FF59
:1002200001220521242000F0EDFF022205213620C5
:1002300000F0E8FF03220521BDE81040482000F04F
:10024000E1BF10B500220521122000F0DBFF0122E2
:100250000521242000F0D6FF02220521362000F0DF
:10026000D1FF03220521BDE81040482000F0CABF9D
:1002700010B500220521122000F0C4FF0122052143
:10028000242000F0BFFF02220521362000F0BAFF33
:1002900003220521BDE81040482000F0B3BF000054
:1002A00070B5044600F008F90546601C02D0044809
:1002B0000078044400F000F9401BA042FAD370BD5E
:1002C000484900202DE9F84FDFF8B8910024A9F142
:1002D000040B23460F2709F1040AABF1040EC9E011
:1002E0000125A5402A40AA427DD1674ED1F804C01D
:1002F000ACEB0608B44532D014DCBCF1030F3AD0A5
:1003000009DCBCF1000F2AD0BCF1010F1CD0BCF1FC
:10031000020F31D11DE0BCF1110F17D0BCF1120F4B
:100320002AD119E0B8F5881F19D006DCB8F5803F4E
:1003300015D0B8F5801F1FD111E0B8F5001F0ED001
:10034000B8F5041F18D10AE0CB6815E0CB681B1D77
:1003500012E0CB6808330FE0CB680C330CE08B68FD
:100360002BB1012B4FF0080303D0456104E00423B7
:1003700002E0056100E00023FF2A01D8064601E003
:1003800000F104064FEA840501D9A5F12005D6F84D
:10039000008007FA05FC28EA0C0803FA05F548EA8C
:1003A0000508C6F800804D68ED0062D5374DAE698E
:1003B00046F00106AE61AD6924F0030605F00105C3
:1003C0000095334D06EB050CDCF80850A607360FF8
:1003D00007FA06F825EA0805DFF8B880404503D19A
:1003E0004FF0000817E044E0DFF8AC80404502D150
:1003F0004FF001080FE0DFF8A480404502D14FF034
:10040000020808E0DFF89880404502D14FF0030869
:1004100001E04FF0040808FA06F848EA0508CCF8AD
:1004200008804D68D9F80060ED024D4601D51643AD
:1004300000E096432E604D68DAF80060AD02554644
:1004400001D5164300E096432E604D68DBF800604E
:10045000AD035D4601D5164300E096432E604D681E
:10046000DEF80060ED03754601D5164300E09643C3
:100470002E60641C0D682A46E5407FF431AFBDE86C
:10048000F88F000008040140000011100010024025
:100490000000014000080140000C01400010014034
:1004A000001401408068084000D0012070470AB164
:1004B000016170470904FBE701488068704700004C
:1004C00048490020024881680278114481607047E1
:1004D00048490020074810B5016841F0100101604B
:1004E000032000F067F8002000F006F800F024F880
:1004F000002010BD0020024070B50D4D04464FF4A1
:100500007A712878B1FBF0F00A490968B1FBF0F084
:1005100000F04FFC48B9102C07D200222146501E93
:1005200000F028F800206C6070BD012070BD000054
:1005300048490020444900200C4808B5816941F031
:1005400001018161816901F001010091C16941F0FE
:100550008051C161C06900F080500090044841683A
:1005600021F0E06141F00071416008BD00100240DF
:1005700000000140F0B40E4B1B680C46C3F302238D
:10058000C3F10705042D00D90425191D072901D23F
:10059000002300E0DB1E012606FA05F1491E21407A
:1005A00099409E40761E16403143F0BC00F0D1BF0A
:1005B0000CED00E0064900F0070208684FF6FF0363
:1005C000184040EA0220034A1043086070470000C8
:1005D0000CED00E00000FA050149012008627047B7
:1005E00000000E4210B501460020234C012922D004
:1005F000022939D010291DD161682268D20119D58C
:100600001E48C1F38342C903805C0AD561681B4A56
:10061000C1F34041921E515C194AB2FBF1F14843CB
:1006200001E0184948436168490203D440000321AE
:10063000B0FBF1F010BD226AC2F30121012903D100
:10064000920701D5C80310BD022905D1626A92073D
:1006500002D549F6404010BD0329FCD12168890329
:10066000F9D54FF2244010BD00F0A4F86168C1F341
:100670008131491C4900DBE700100240201B0008C3
:1006800000127A0000093D002DE9F0470F460500F1
:1006900061D0434E306800F00700B84209D230689C
:1006A00020F0070038433060306800F00700B8429F
:1006B00051D128683B4C810712D5400703D56068AB
:1006C00040F4E06060602878000703D5606840F47B
:1006D000605060606068A96820F0F00008436060C6
:1006E0002878C00728D06868012810D0216802281F
:1006F00010D0890700292EDA616821F00301014337
:100700006160FFF7D9FE804641F288390DE021682B
:100710008903EFE78901EDE7FFF7CEFEA0EB0801C3
:10072000494502D90320BDE8F0876068696800F098
:100730000C00B0EB810FEFD1306800F00700B84239
:100740000BD9306820F0070038433060306800F083
:100750000700B84201D00120E5E72878400705D519
:100760006068E96820F4E06008436060287800076A
:1007700006D56068296920F4605040EAC1006060D5
:1007800000F028F86168084AC1F30311515CC840C1
:100790000649086006480068FFF7AEFE0020C2E781
:1007A0000020024000100240F41A000844490020D2
:1007B0004C4900200448054900684968044AC1F3CF
:1007C000C221515CC84070474449002000100240DB
:1007D000041B00080E4A51680E4801F00C03042B5C
:1007E00011D0082B0FD10C48C1F38343C903C05C5F
:1007F0000AD55168084AC1F34041921E515C054A2E
:100800005043B0FBF1F07047044948437047000083
:100810000010024000127A000E1B000800093D0083
:100820002DE9F84F040070D02078C04DC00749D0A2
:100830006868C0F38100012807D06868C0F38100B0
:10084000022809D16868C00306D52868800339D515
:1008500060680028E7D035E06068B0F5803F0BD0D5
:1008600010B1B0F5A02F11D0286820F48030286096
:10087000286820F4802002E0286840F48030286056
:10088000606890B1FFF718FE06460AE0286840F459
:1008900080202860F0E700BFFFF70EFE801B642871
:1008A00073D828688003F7D50CE0FFF705FE0646ED
:1008B00005E000BFFFF700FE801B6428F0D8286821
:1008C0008003F7D420789A4E80074FF001094FF04B
:1008D000000839D5686810F00C0F07D06868C0F3BD
:1008E0008100022809D16868C00306D428688007FF
:1008F00014D52069012808D110E02069B0B1C6F8EC
:100900000090FFF7D9FD074605E00AE1FFF7D4FDA7
:10091000C01B0228C4D828688007F7D528686169F9
:1009200020F0F80040EAC10028600DE0C6F8008021
:10093000FFF7C2FD074604E0FFF7BEFDC01B02281B
:1009400023D828688007F7D4207800072CD5794869
:10095000A169D9B1C0F80090FFF7AEFD074604E0E9
:10096000FFF7AAFDC01B02280FD8686A8007F7D5D9
:1009700071484FF4FA510068B0FBF1F0009000BFED
:100980000098411E0091FAD20EE080E0C0F800808D
:10099000FFF792FD074604E0FFF78EFDC01B02281B
:1009A00075D8686A8007F7D42078400760D5E86971
:1009B0000027C00008D4E86940F08050E861E86989
:1009C000012700F0805000905C480168C90513D4ED
:1009D0000168834641F480710160FFF76DFD824636
:1009E00006E000BFFFF768FDA0EB0A0064284ED8C0
:1009F000DBF80000C005F5D5E06801280AD008B191
:100A0000052813D0286A20F001002862286A20F007
:100A1000040002E0286A40F001002862E06841F228
:100A2000883B98B1FFF748FD82460BE0286A40F00A
:100A300004002862EEE700BFFFF73EFDA0EB0A01CD
:100A400059455AD8286A8007F6D50CE0FFF734FDDF
:100A5000824605E0FFF730FDA0EB0A0159454CD86E
:100A6000286A8007F6D41FB1E86920F08050E86159
:100A7000E06988B36968C1F38101022944D0022882
:100A8000C6F8608004D0FFF717FD044638E034E074
:100A9000FFF712FD074604E0FFF70EFDC01B02281A
:100AA0002BD828688001F7D4206AB0F5803F05D1A3
:100AB0006868A16820F4003008436860D4E9080140
:100AC0000843696821F4741108436860C6F86090AF
:100AD000FFF7F2FC044606E025E000BFFFF7ECFC60
:100AE000001B022809D828688001F7D51BE000BF49
:100AF000FFF7E2FC001B022802D90320BDE8F88FB3
:100B000028688001F4D40EE00128F7D06868226AD2
:100B100000F48031914204D1616A00F4701088427F
:100B200001D00120EAE70020E8E7000000100240C1
:100B300000004242800442424449002000700040CC
:100B400070B5040003D0607C002610B105E00120E0
:100B500070BD2674204600F03DF8022060742046E7
:100B600000F00AF9042550BB204600F0F7FB30BB2B
:100B70002068416821F007014160A06820B1144855
:100B8000016821F0010101601148001F0168A2689D
:100B900021F46071114301606068411C04D101209F
:100BA000FFF720FD58B1401E2268C0F30341916059
:100BB000216880B2C860204600F0EAFB08B1657485
:100BC000C5E7E67301206073A0736074002070BDF8
:100BD000306C004008B50068084988420DD1FFF725
:100BE000FBFC0748C16941F00061C161C06905496A
:100BF00000F0006000900120086008BD002800405F
:100C0000001002403C0442422DE9F0410D46040030
:100C10003BD0C5B3207C01283AD04FF0010884F8BE
:100C2000108002206074E87872B300F08EFBE073ED
:100C3000687800F08AFB6073A87800F086FBA073E8
:100C4000C2B2617BE07B00F0D5FB207328702046A8
:100C500000F0C0FB4FF46161B0FBF1F100251829F1
:100C60002DD91822B1FBF2F1A1EB011101EB4101E9
:100C7000C1EB011100EBC1163146204600F0F9FB33
:100C80000427C8B90BE000E004E00120BDE8F081D2
:100C90000220FBE7E07368786073A878CFE720460E
:100CA00000F091FB411C0AD0B04208D20649014431
:100CB000204600F0CAFB10B167742574E5E784F89C
:100CC000118025740020E1E7805101002DE9F041F9
:100CD0000D46040024D01DB3207C012823D04FF002
:100CE000010884F81080022060742878EAB100F0CE
:100CF0002CFB4FF4616100FB01F6687800F025FBE6
:100D0000C0EB001006EB8006A87800F01EFB35183B
:100D10002946204600F0ADFB0026042710BB0FE05B
:100D20000120BDE8F0810220FBE74FF461614843F8
:100D30006978C1EB011100EB8100A9784518E7E75C
:100D40002068416821F005014160204600F03BFB2E
:100D5000411C0AD0A84208D206490144204600F0AE
:100D600074FB10B167742674DAE784F81180267476
:100D70000020D6E78051010070B504000AD0206839
:100D8000416821F008014160FFF796FB05464FF4EA
:100D90007A7608E0012070BDFFF78EFB401BB04261
:100DA00001D9032070BD206840680007F4D50020F9
:100DB00070BD10B5401EB0F1807F01D3012010BD81
:100DC0004FF0E02460610F21601700F0C2FB0020AB
:100DD000A06107202061002010BDFEE700B585B0AE
:100DE00000200190029003900848816941F00801B9
:100DF00081618069694600F0080004901B20009022
:100E00000348FFF75FFA05B000BD00000010024084
:100E1000000C01402DE9F041102000F03FFB274C71
:100E20002070082000F03AFB6070022000F036FBD2
:100E3000A070012000F032FBE070261D2078317890
:100E40001F4F204D88420AD03220FFF729FA207820
:100E5000012804D1287807EBC0004078287060781A
:100E6000717888420AD03220FFF71AFA6078012898
:100E700004D1287807EBC00080782870A078B1787A
:100E800088420AD03220FFF70BFAA078012804D15B
:100E9000287807EBC000C0782870E078F1788842A5
:100EA00007D03220FFF7FCF9E078012801D10020BB
:100EB000287020686060BDE8F08100003C010020DF
:100EC000040100200001002070B586B000242448F1
:100ED0000094019402940394816941F010018161AE
:100EE000816901F010010491816941F02001816163
:100EF000816901F020010491816941F0040181615F
:100F0000816901F004010491816941F00801816166
:100F10008069144E00F008004FF400550490002240
:100F200029463046FFF7C3FA01200095CDE90104B8
:100F30000220039069463046FFF7C4F93020CDE91E
:100F40000004694608480294FFF7BCF91B20CDE96C
:100F50000004694605480294FFF7B4F906B070BD75
:100F6000001002400010014000080140000C014048
:100F70001CB500241A480194184900940160611EB0
:100F800041604FF480718160FFF7DAFD08B1FFF72F
:100F90001CF98DF804408DF805408DF806400122BB
:100FA00001A90F48FFF792FE08B1FFF70EF90320E1
:100FB0008DF8000011208DF8010013208DF802003B
:100FC00024208DF80300012269460548FFF71CFE26
:100FD000002801D0FFF7F9F81CBD000000280040F0
:100FE00054490020FEE7000008B5044800210090A5
:100FF00008238022084600F022F808BD440D002096
:10100000704770B5002404F1B000C0B2002100F0B8
:1010100059F90021084600F055F90021102000F090
:1010200051F900250121002000F04CF96D1CEDB2B2
:10103000802DF7D3641CE4B2082CE4D370BD2DE9F5
:10104000F04798461746824600260C46DDF8209069
:1010500011E02146504600F0BFF8554607E019F868
:1010600006000121761C00F02DF96D1CEDB2BD4289
:10107000F5D3641CE4B24445EBD3BDE8F08700002F
:1010800030B585B0002002905148816941F00801D7
:10109000816180694FF4E64400F00800049001206B
:1010A000CDE9004002204B4D039069462846FFF7EA
:1010B00009F9012221462846FFF7F9F9AC1400226C
:1010C00021462846FFF7F3F96420FFF7E9F80122EB
:1010D00021462846FFF7EBF90021AE2000F0F2F898
:1010E0000021084600F0EEF80021102000F0EAF898
:1010F0000021402000F0E6F80021812000F0E2F815
:101100000021CF2000F0DEF80021A12000F0DAF865
:101110000021C82000F0D6F80021A62000F0D2F867
:101120000021A82000F0CEF800213F2000F0CAF8EE
:101130000021D32000F0C6F80021084600F0C2F8D4
:101140000021D52000F0BEF80021F02000F0BAF810
:101150000021D92000F0B6F80021F12000F0B2F80B
:101160000021DA2000F0AEF80021122000F0AAF8E9
:101170000021DB2000F0A6F80021402000F0A2F8BA
:101180000021202000F09EF80021022000F09AF8B3
:1011900000218D2000F096F80021142000F092F834
:1011A0000021A42000F08EF80021A62000F08AF88B
:1011B0000021AF2000F086F80021AF2000F082F877
:1011C000FFF71FFF0021084600F006F805B030BD0C
:1011D00000100240000C014010B50446B031C8B206
:1011E000002100F06FF8102040EA1410002100F0F8
:1011F00069F804F00F00BDE8104040F00100002144
:1012000000F060B82DE9F04115460E460746FFF79D
:10121000E3FF0F48002400EB85150121285D00F055
:1012200051F8641CE4B2102CF7D3761CF1B23846A6
:10123000FFF7D2FF00242819012190F8200000F0C8
:1012400041F8641CE4B2102CF5D3BDE8F081000035
:101250000000002070B5203A0024D5B27F2802D9C2
:101260000020891CC9B2491CC9B2FFF7B5FF074964
:1012700005EB450001EB40050121285D00F022F857
:10128000641CE4B2062CF7D370BD0000CC18000833
:101290002DE9F04117460E46044600250CE0314684
:1012A0002046FFF7D7FFA41DE4B2782C02D9002412
:1012B000B61CF6B26D1CEDB27A5D002AEFD1BDE826
:1012C000F08100002DE9F0471E4D06464FF4005A0C
:1012D00009B1012200E0002251462846FFF7E7F855
:1012E0004FF48048002241462846FFF7E0F80024EA
:1012F0004FF400794FF48077002239462846FFF7F3
:10130000D6F8300601D5012200E0002249462846E1
:10131000FFF7CDF8012239462846FFF7C8F87006D6
:10132000641C060EE4B2082CE6D30122414628468E
:10133000FFF7BDF851462846BDE8F0470122FFF708
:10134000B6B80000000C01407047010901EB8101B3
:1013500000F00F0000EB4100C0B2704770B50446CA
:10136000FFF7AAF805464FF47A7606E0FFF7A4F8EF
:10137000401BB04201D9032070BD20684068800640
:10138000F4D52068416841F010014160002070BD33
:1013900070B504460068416821F010014160FFF714
:1013A0008BF805464FF47A7607E000BFFFF784F824
:1013B000401BB04201D9032070BD20684068800600
:1013C000F4D5002070BD0168086A496A89B241EA13
:1013D00000407047006881698AB2C1698BB2816937
:1013E00089B28A4203D0C06961F31F40704743EA63
:1013F00002407047F0B56424C1EBC1030927A50082
:10140000072603EB01130329B3FBF7F100F5FA609C
:10141000114401440AD2401EB0FBF4F201EB9001EA
:10142000B0FBF5F0891A0844001D08E0B0FBF4F2A7
:1014300001EB9001B0FBF5F0891A0844801CB0FB69
:10144000F6F106FB1100C0B2F0BD70B50D460646C0
:101450000024FFF783FF48B93168280C086231681F
:10146000A8B248623046FFF793FF00B1012420463E
:1014700070BD70B50D4606460024FFF76FFF48B9F2
:101480003168280C88613168A8B2C8613046FFF71E
:101490007FFF00B10124204670BD000010B5014659
:1014A0000348FEF7FFFF08B1002010BD012010BD6A
:1014B000000C01407047FFF705B830B58FB0282108
:1014C0006846FEF738FE14210AA8FEF734FE012113
:1014D0000804CDE900100024029402250491CDE90E
:1014E00007504FF4E01009906846FFF799F90F2074
:1014F000CDE90A056802CDE90C4002210AA80E9444
:10150000FFF7C2F80FB030BD0D48016841F001018E
:10151000016041680B4A1140416001680A4A11406C
:101520000160016821F480210160416821F4FE011D
:1015300041604FF41F0181600449C0030860704797
:10154000001002400000FFF8FFFFF6FE08ED00E08B
:10155000FEE70907090E002804DB00F1E02080F80F
:101560000014704700F00F0000F1E02080F8141D17
:10157000704702E008C8121F08C1002AFAD170475C
:101580007047002001E001C1121F002AFBD1704703
:1015900008B5FEF79FFFFFF790FFFFF795FCFFF7F9
:1015A000E7FCFFF71BFCFFF76BFDFFF72AFDB448D4
:1015B0000021B4A2017001210020FFF769FE002282
:1015C00005211220FFF71EFE012205212420FFF72E
:1015D00019FE022205213620FFF714FE0322052101
:1015E0004820FFF70FFE40F6B830FEF759FEA84C32
:1015F00000210823802208460094FFF720FD3220B6
:10160000FEF74EFEA34D00210823802208460095D8
:10161000FFF715FD3220FEF743FE9F4E0021082301
:10162000802208460096FFF70AFD3220FEF738FEBA
:101630009A4F00210823802208460097FFF7FFFCFD
:101640003220FEF72DFEDFF8588200210823802289
:101650000846CDF80080FFF7F2FC3220FEF720FEAE
:10166000DFF840920021082380220846CDF8009040
:10167000FFF7E5FC3220FEF713FE8B4800210090B7
:10168000082380220846FFF7DAFC3220FEF708FE26
:10169000864800210090082380220846FFF7CFFCEF
:1016A0003220FEF7FDFD82480021009008238022B1
:1016B0000846FFF7C4FC3220FEF7F2FD7D4800210A
:1016C0000090082380220846FFF7B9FC3220FEF77D
:1016D000E7FDDFF8E4A10021082380220846CDF8C9
:1016E00000A0FFF7ACFC3220FEF7DAFD73480021C2
:1016F0000090082380220846FFF7A1FC3220FEF765
:10170000CFFDDFF8BCB10021082380220846CDF8C8
:1017100000B0FFF794FC3220FEF7C2FD69480021BB
:101720000090082380220846FFF789FC3220FEF74C
:10173000B7FD00210823802208460094FFF77FFCB4
:101740003220FEF7ADFD00210823802208460095D7
:10175000FFF775FC3220FEF7A3FD0021082380224D
:1017600008460096FFF76BFC3220FEF799FD00213A
:101770000823802208460097FFF761FC3220FEF71D
:101780008FFD0021082380220846CDF80080FFF756
:1017900056FC3220FEF784FD0021082380220846F3
:1017A000CDF80090FFF74BFC3220FEF779FD3E4864
:1017B00000210090082380220846FFF740FC3220D9
:1017C000FEF76EFD3948002100900823802208466C
:1017D000FFF735FC3220FEF763FD3548002100900D
:1017E000082380220846FFF72AFC3220FEF758FD26
:1017F000304800210090082380220846FFF71FFC94
:101800003220FEF74DFD0021082380220846CDF846
:1018100000A0FFF714FC3220FEF742FD274800210C
:101820000090082380220846FFF709FC3220FEF7CB
:1018300037FD0021082380220846CDF800B0FFF7CD
:10184000FEFB3220FEF72CFD1E48002100900823ED
:1018500080220846FFF7F3FB3220FEF721FDFFF759
:10186000D0FB074C184D00BFFFF7D4FA207805EBEA
:10187000C000406880476420FEF712FDF4E70000D6
:1018800000010020506F776572206279000000002F
:10189000441100204415002044190020441D00205C
:1018A000442100204425002044290020442D00200C
:1018B000443100204435002044390020443D0020BC
:1018C00044410020444500200401002000000000A5
:1018D00000000000002F00000000070007000014B7
:1018E0007F147F1400242A7F2A12006264081323C5
:1018F00000364955225000000503000000001C225C
:101900004100000041221C000014083E0814000899
:10191000083E0808000000A0600000080808080849
:10192000000060600000002010080402003E5149E1
:10193000453E0000427F400000426151494600217F
:1019400041454B31001814127F1000274545453999
:10195000003C4A49493000017109050300364949F4
:10196000493600064949291E0000363600000000AD
:1019700056360000000814224100001414141414F8
:1019800000004122140800020151090600324959A1
:10199000513E007C1211127C007F49494936003EBD
:1019A00041414122007F4141221C007F4949494178
:1019B000007F09090901003E4149497A007F080872
:1019C000087F0000417F4100002040413F01007F2F
:1019D00008142241007F40404040007F020C027FFB
:1019E000007F0408107F003E4141413E007F09090D
:1019F0000906003E4151215E007F09192946004633
:101A0000494949310001017F0101003F4040403F09
:101A1000001F2040201F003F4038403F0063140853
:101A2000146300070870080700615149454300002E
:101A30007F41410000552A552A55000041417F0051
:101A40000004020102040040404040400000010246
:101A50000400002054545478007F4844443800382F
:101A60004444442000384444487F003854545418B7
:101A700000087E0901020018A4A4A47C007F0804C9
:101A800004780000447D4000004080847D00007F99
:101A9000102844000000417F4000007C04180478B6
:101AA000007C0804047800384444443800FC2424B2
:101AB00024180018242418FC007C0804040800489A
:101AC0005454542000043F444020003C4040207CBB
:101AD000001C2040201C003C4030403C00442810AA
:101AE0002844001CA0A0A07C004464544C4414145E
:101AF000141414140000000000000000010203048C
:101B000006070809000000000102030401020203A5
:101B10000405060708090A0B0C0D0E0F1010010230
:101B200002030405060708090A0B0C0D0E0F10101E
:101B3000501B0008000000205449000070010008FC
:101B4000842800085449002014040000821500086D
:101B50002A80011F40FF404040200101181A3F2009
:101B600019010215784BFE02010215FE2E8040235A
:101B70001901010512091320C026F808FF08F80012
:101B800008123E2222E222223E1623613F11390032
:101B90000A12FF110905030559817F180840201E0C
:101BA000101010FF0403131010599C5AFF0801165F
:101BB00012011401E90F150801040213CD011508E3
:101BC0000205031AE508140306011AFD08170404A8
:101BD000040115021F080505050243081E06060636
:101BE0000371080167200A183030C0FFC7663C182F
:101BF0001DE0E0FCFE7E5C0606F6010534E606FC10
:101C0000F8680B80C0E0E070703838181C01000ADA
:101C1000111838387070E0E0C080200A0406030113
:101C20007F311B0E041F01010F1F1810015A1301F1
:101C30000D1F11181F0F6BD2C07009E0F07C1E0F32
:101C40000703017008787CFCFCFC7C78E00901014A
:101C5000070F1E7CF8E009129601231F60F0F8FCC4
:101C6000FEFF01C1CBFFFFB11A1C7FE3FCFCBC07E8
:101C7000FFFF1229440630FEFCF8F060C0080103A3
:101C8000070F1F3F7FAD1F7FFEE0CE2A805D9BFFC9
:101C90008013C780C0FC7F1F070008213F3F1F0F34
:101CA000070301B958A11808C0E070703030100166
:101CB000281630303070E0C183070E1C3870E0E029
:101CC000C0C0808080830301381583838080C0C0BA
:101CD000E0E070783C1E0F07C1E060303018011A58
:101CE0003831BAC058A9AB81100E42F22E22E2045C
:101CF000FA4949F94D4BF81808060292121212F3EC
:101D000004141202063CFCFF03853DF05ECF7CFA12
:101D10006403FFFC1A0101397E3901190D61593143
:101D20002808028EDC70F88E0228138FFE242021F2
:101D3000E63008FF0929498868181EFF0101F909E2
:101D40000145F90101FF100D0F040407100F0202F5
:101D50000F02121F18091008070810101F11011395
:101D600010103A01EE1C7063E0015808617370387E
:101D70001C0E07690117193138121830706063C3DF
:101D8000C0C0C0C3636030381C0F0354200A121156
:101D9000141211101116102C1F08087F0660090973
:101DA00008081F1809183030C0FFC7663CF82EE03D
:101DB000E0FCFE06015AF6010530E606FCF81EC0FE
:101DC000F0F0F878013A38014EB8F8F8F8B80B1985
:101DD000140510F0F0E0C0200A040603017F311B57
:101DE0000E041F01010F1F1810015A1301051F11C6
:101DF000181F0FAB80C052200DF0FCFF3F077D7C09
:101E0000FEFEFEFC7C19751008E3E7E7E7E33838CF
:101E1000D0103C3C3CFFE7E7FF3C3D073FFEF8E0CD
:101E200080CBE0C01001271F60F0F8FCFEFF0189A5
:101E30004975FC7F0F0129841BFEFE85311B1E3F67
:101E4000011B1E010141C6010F7FFFFC2944063022
:101E5000FEFCF8F06080080103070F1F3F7F1C7F26
:101E6000FFE7C9F80A80C0E0F0783C1C1E0E013D77
:101E70001C3C78F0EC7C80E7FF35316F3F3F1F0F53
:101E80000703B9011A193A09120C1808C0E070705A
:101E90003030100108081A31333777E7C7834A1901
:101EA000B3380807C7E763313018013C3830709207
:101EB0008958AA800E71100E42F22E22E204FA49CD
:101EC00049F94D4BF81808060292121212F3041445
:101ED0001202063CFCFF03852EF05ECF7CE03C0442
:101EE0001D03FFFC59312808028EDC70F88E029326
:101EF000138FFE242021E63008FF0929498868183D
:101F00001EFF0101F9090145F90101FF100D0F0440
:101F10000407100F02020F02121F18091008070809
:101F200010101F1101131010180A01070E1C387031
:101F30007063E00100091D617370381C0E07011900
:101F40003138121830706063C3C0C0C0C3636030E2
:101F5000381C0F0354200A121114121110111610FC
:101F60002C1F08087F0660090908081F1809183087
:101F700030C0FFC7663CF82EE0E0FCFE06015AF6D2
:101F8000010530E606FCF8181880C0E0F078F0F0A3
:101F9000E0C080C0C0F8FFFF7F030303FFFFFCC069
:101FA0000F5AE019E1200A040603017F311B0E04D9
:101FB0001F01010F1F1810015A13010D1F11181FC7
:101FC0000F6FC950180A01070FDFFEFCF0010178FE
:101FD0003D83C1C1E0011CC1C1810FF00A03013082
:101FE000F8FCFF1F070119AB01341F60F0F8FCFE7D
:101FF000FF01A1400AFEFE8E8F8F8F8787071FFC8F
:10200000FFFFCF03016D198C55CFFFFFFC1B8787A6
:1020100021B58EFEFEFE29440630FEFCF8F06098E5
:10202000080103070F1F3F7F1129F646C3EFFFFF8B
:1020300038191E280C0F1E1E1C1C1C1E1F0F070308
:10204000F61808307CFFFFC3830396290E816B3F8F
:102050003F20011E0A14800C1808C0E07070303058
:102060001001301630303070E2CF9F1F3D78383C81
:102070001E1E0F0E1EFCFCFCF019071B1E0E8C1DF5
:102080003C3878786C3FC6E06030301801BE38309C
:1020900070E0C058AA800E71100E42F22E22E204A7
:1020A000FA4949F94D4BF81808060292121212F338
:1020B00004141202063CFCFF03852EF05ECF7CE088
:1020C0003CA403FFFC5A0701B159313008028EDCF1
:1020D00070F88E0214018FFE242021E63008FF09DB
:1020E00029498868181EFF0101F9090145F9010114
:1020F000FF100D0F040407100F02020F02121F1829
:10210000091008070810101F1101131010180A01F8
:10211000070E1C38707063E00100091D6173703890
:102120001C0E0701193138121830706063C3C0C02B
:10213000C0C3636030381C0F0354200A12111412FC
:1021400011101116102C1F08087F066009090808D5
:102150001F1809183030C0FFC7663CF82EE0E0FCBD
:10216000FE06015AF601053AE606FCF83F8080E0DB
:10217000E0F0F8010517E0E08080200A0406030182
:102180007F311B0E041F01010F1F1810015A13018C
:102190000D1E11181F0F650310C0C0081E10C0C00F
:1021A000F0F0F8FCFEFEFF3F3F0F0F0707010707A7
:1021B0000F0F3F3FFFFEFEFCF8F0F02F110B16E073
:1021C000C09C011D2A60651AFF01C12E1C1E1F1F25
:1021D0001F151BFF0359A901213A03181920D31E0B
:1021E0001C2916299C0230600008110103070F1FEB
:1021F0003F7F396869084B0303789918F10008217B
:102200003F3F1F0F0703010A14800C1808C0E0703D
:102210007030301001100830303070E0C080AA0FEC
:102220000131D9103FC0E060303018014A3831998F
:1022300058AA800E71100E42F22E22E204FA494989
:10224000F94D4BF81808060292121212F3041412F8
:1022500002063CFCFF03852EF05ECF7CE03C041DB3
:1022600003FFFC59313008028EDC70F88E02140135
:102270008FFE242021E63008FF0929498868181EAE
:10228000FF0101F9090145F90101FF100D0F0404D7
:1022900007100F02020F02121F180910080708107A
:1022A000101F1101131010180A01070E1C3870704E
:1022B00063E00100091D617370381C0E07011931BC
:1022C00038121830706063C3C0C0C0C36360303858
:1022D0001C0F0354200A1211141211101116102C85
:1022E0001F08087F06B2090908081F1A8001511D3E
:1022F000F0F8FC1C01046AFCF8F0200B3C7FFFE7BF
:10230000C3C3E7FF7E3C1D03070F0E01340F070315
:102310004D187E7FE717015A1808C0E06060E0C0E2
:1023200001010918230558C0E0C0803D03070606D7
:10233000ED0919231901015F1A3C01918A80ED050D
:1023400070183C3C380C5E030707EF01FF01113A9F
:102350008001390A00096BF0F8381C1838F8F01DB4
:102360007EFFFFC30134FFFF7E50090307070E06FF
:10237000070703075C3C3C66667E1C180AC0E070D9
:10238000303070E1C10101091724190101585F03C0
:10239000070E0C0C0EEF0916241901015E873C7C18
:1023A00066663E18848080800570183C3C380C5D61
:1023B000070707EF01FF01131A80016100096BC0D5
:1023C000F0F03838F8F0E0300B3CFFFFE7C3C3E72C
:1023D000FFFF3C6808010307070703031B190101FE
:1023E0005C000D19C0E0F078383878F0E1C10101E7
:1023F000055780C0C0C0680A030F0F1E1C1C1E0FAB
:1024000007F10913250B1803039D014458091C7E8D
:102410007EE7E7FE7E18EF1901810570183C3C3815
:102420001A070101FF017C076DE0F03030F0E05049
:10243000093C7EE7C3C3E77E3C1B01030172014CEC
:102440001C3C3C160957ED1BF838010A1BF8F10536
:102450005780C0C0801D070F1F1C01041B1F0F07E2
:10246000055C01030301680A187EFFE7C3C3E7FFA9
:102470007EEE83C0C01A3C01016589E107FF0707B2
:102480000C0C0F07017C1AE001016F773C7E6E6631
:102490007E3C1A010181055C183C3C18000B1BC0F6
:1024A000F0F078383878F0F0C00C1A80C0C01F0106
:1024B0003C000E18030F0F1E1C1C1E8F878380808C
:1024C00080055C010303011D7EFFFFC30144FFFF84
:1024D0007E5FC0C0E0E0E0C08D1A3C010262103AAD
:1024E0000101510009FF030F0F1C1C0F0F03017B9B
:1024F000056FC0E0E0E096083C3E3C3C9301010DD6
:102500005D183C3C18ED0F1B70303070E0C0241992
:10251000010158180A03070E0C0C0E87838001096D
:1025200017241901015C1D7EFFFFC3012CFFFF7EF4
:10253000ED4FE0E06070E0E0F107623C7E66667EB1
:102540003C3A010141000AFF020F1F1C18181C1F12
:102550000F017B0570C0E0E0C01A3C0191930101BE
:10256000AA1C180955EE0B1D6060F01AC001025834
:102570008017030706060703091A601A0301015CA6
:10258000280A187EFFE7C3C3E7FF7EEC1CE0F0706B
:102590000134F0E0C02B3C7E1803637E3C630101F4
:1025A0001D0F1F3F380104FF3F1F0F017A0570C048
:1025B000E0E0E0951C3C3C389301011A3C01095EC7
:1025C000EF0D1B40E0C080210659E06060E0C005CF
:1025D00019030703031A80010E18030706060723D1
:1025E000014338091C7E7EE7E7FE7E18ED1BF07084
:1025F000012AF0F1000B6A3C7FFFE7C3C3E7FFFE4F
:102600003C1D0F1F3F3801543F1F0F1A010101FFEE
:1026100001710570C0E0E0E095183C3C18830101B1
:102620000F5D1C7E66663E3CEF1901091B200F1BE7
:10263000E070303070E024013C1A030101181A8068
:102640000108081783870E0C0C0E072401445F3C19
:102650007E66667E38EF3DE07060E0EF1D7EFFFF36
:10266000C301046AFFFF7E500A020F1F1C38181CAA
:102670001F0F3A010101FF01701AE0010170851C72
:102680003C3C181A01016100095D187E7EE7E77E77
:102690007E38051B80C0C080000B57C0E0F0783842
:1026A0003878F0F0C05C030303EF09129D000C5C66
:1026B00080838F0F1E1C1C1E0F07031A3C0169F13B
:1026C0002FC0E0E0E0C080156809FFFFE7C3C3E763
:1026D000FFFF1B01645808070F1F1C1C0F0FEE1A89
:1026E000010101FF017087E0F03030F0C002668028
:1026F0001A3C017157010103030301000A5C7EFFCC
:10270000E7C3C3E7FF7E100C1A80C0C0E51DE0F0F0
:10271000F838010457F8F0E019EF49EE01161D07EB
:102720000F1F1C01045C1F0F07753C3C3C381B80CD
:10273000C0014A801600086DFEE7C3C3E77E3C0D6A
:102740005C070F0C0CED01FF011E5009C0F0F038C2
:1027500038F8F0E03A8001016276083C3E3C3C47A4
:102760000303070703031D7EFFFFC301045CFFFF94
:102770007E0C1780C0C0E2000E57010101C1F1F1CB
:1027800078383878F0F0C00D1A030303011F000AEF
:102790005C0F0F1E1C1C1E0F070385183C3C181AEB
:1027A000800171076F3C7E66667E3C1A070101FF5F
:1027B000017A480A80F0F838181838F8F00E390114
:1027C0000162573C7E66667E3C30090307070E06B1
:1027D0000707031D7EFFFFC301045CFFFF7E1AC0D5
:1027E0000101181A0101080817C1E170303070E0CA
:1027F0002401401A0301091B200F1B070E0C0C0EAD
:102800000724014195183C3C1884808080066F3C69
:102810003C7C3C101A070101FF017B1DF0F8FC1CF9
:102820000164FCF8F00363808030093C7EE7E3C379
:10283000E77E3C1D03070F0E01240F0703000B5C0E
:10284000087EFFE7C3C3E7FF7E181AC001091C21F9
:102850000D1CE06060E023013C1A0301091C210DFE
:102860001C07060607230141953C3C3C38AB8080A1
:102870001802703C0B5E0307EE01611324F4320171
:0428800072100000D2
:04000005080000ED02
:00000001FF
